{
  "_format": "hh-sol-artifact-1",
  "contractName": "Community",
  "sourceName": "contracts/Community.sol",
  "abi": [
    {
      "inputs": [
        {
          "internalType": "address",
          "name": "friend_key",
          "type": "address"
        },
        {
          "internalType": "string",
          "name": "name",
          "type": "string"
        }
      ],
      "name": "addFriend",
      "outputs": [],
      "stateMutability": "nonpayable",
      "type": "function"
    },
    {
      "inputs": [
        {
          "internalType": "address",
          "name": "pubkey",
          "type": "address"
        }
      ],
      "name": "checkUserExists",
      "outputs": [
        {
          "internalType": "bool",
          "name": "",
          "type": "bool"
        }
      ],
      "stateMutability": "view",
      "type": "function"
    },
    {
      "inputs": [
        {
          "internalType": "string",
          "name": "name",
          "type": "string"
        }
      ],
      "name": "createAccount",
      "outputs": [],
      "stateMutability": "nonpayable",
      "type": "function"
    },
    {
      "inputs": [],
      "name": "getAllAppUser",
      "outputs": [
        {
          "components": [
            {
              "internalType": "string",
              "name": "name",
              "type": "string"
            },
            {
              "internalType": "address",
              "name": "accountAddress",
              "type": "address"
            }
          ],
          "internalType": "struct Community.AllUserStruck[]",
          "name": "",
          "type": "tuple[]"
        }
      ],
      "stateMutability": "view",
      "type": "function"
    },
    {
      "inputs": [],
      "name": "getMyFriendList",
      "outputs": [
        {
          "components": [
            {
              "internalType": "address",
              "name": "pubkey",
              "type": "address"
            },
            {
              "internalType": "string",
              "name": "name",
              "type": "string"
            }
          ],
          "internalType": "struct Community.friend[]",
          "name": "",
          "type": "tuple[]"
        }
      ],
      "stateMutability": "view",
      "type": "function"
    },
    {
      "inputs": [
        {
          "internalType": "address",
          "name": "pubkey",
          "type": "address"
        }
      ],
      "name": "getUsername",
      "outputs": [
        {
          "internalType": "string",
          "name": "",
          "type": "string"
        }
      ],
      "stateMutability": "view",
      "type": "function"
    },
    {
      "inputs": [
        {
          "internalType": "address",
          "name": "friend_key",
          "type": "address"
        }
      ],
      "name": "readMessage",
      "outputs": [
        {
          "components": [
            {
              "internalType": "address",
              "name": "sender",
              "type": "address"
            },
            {
              "internalType": "uint256",
              "name": "timestamp",
              "type": "uint256"
            },
            {
              "internalType": "string",
              "name": "msg",
              "type": "string"
            }
          ],
          "internalType": "struct Community.message[]",
          "name": "",
          "type": "tuple[]"
        }
      ],
      "stateMutability": "view",
      "type": "function"
    },
    {
      "inputs": [
        {
          "internalType": "address",
          "name": "friend_key",
          "type": "address"
        },
        {
          "internalType": "string",
          "name": "_msg",
          "type": "string"
        }
      ],
      "name": "sendMessage",
      "outputs": [],
      "stateMutability": "nonpayable",
      "type": "function"
    }
  ],
  "bytecode": "0x608060405234801561001057600080fd5b50611215806100206000396000f3fe608060405234801561001057600080fd5b50600436106100885760003560e01c8063a24d41de1161005b578063a24d41de146100fd578063bd0f4d0d14610112578063ce43c03214610127578063de6f24bb1461014757600080fd5b8063133f50f51461008d578063255e9c11146100b5578063298daf5b146100d55780633b9f708d146100ea575b600080fd5b6100a061009b366004610f08565b61015a565b60405190151581526020015b60405180910390f35b6100c86100c3366004610f08565b61018a565b6040516100ac91906110f1565b6100e86100e3366004610f7a565b6102bd565b005b6100e86100f8366004610f29565b610428565b610105610693565b6040516100ac9190611005565b61011a610797565b6040516100ac9190611083565b61013a610135366004610f08565b6108a1565b6040516100ac919061116a565b6100e8610155366004610f29565b6109a0565b6001600160a01b038116600090815260016020526040812080548291906101809061117d565b9050119050919050565b606060006101983384610b88565b905060026000828152602001908152602001600020805480602002602001604051908101604052809291908181526020016000905b828210156102b1576000848152602090819020604080516060810182526003860290920180546001600160a01b03168352600181015493830193909352600283018054929392918401916102209061117d565b80601f016020809104026020016040519081016040528092919081815260200182805461024c9061117d565b80156102995780601f1061026e57610100808354040283529160200191610299565b820191906000526020600020905b81548152906001019060200180831161027c57829003601f168201915b505050505081525050815260200190600101906101cd565b50505050915050919050565b6102c63361015a565b156103185760405162461bcd60e51b815260206004820152601360248201527f5573657220616c7265616479206578697374730000000000000000000000000060448201526064015b60405180910390fd5b806103655760405162461bcd60e51b815260206004820152601860248201527f757365726e616d652063616e6e6f7420626520656d7074790000000000000000604482015260640161030f565b33600090815260016020526040902061037f908383610d98565b506040805160606020601f85018190040282018101835291810183815260009282919086908690819085018382808284376000920182905250938552505033602093840152508354600181018555938152819020825180519394600202909101926103ed9284920190610e1c565b50602091909101516001909101805473ffffffffffffffffffffffffffffffffffffffff19166001600160a01b039092169190911790555050565b6104313361015a565b61047d5760405162461bcd60e51b815260206004820152601760248201527f43726561746520616e206163636f756e74206669727374000000000000000000604482015260640161030f565b6104868361015a565b6104d25760405162461bcd60e51b815260206004820152601460248201527f55736572206973206e6f74207265676973746572000000000000000000000000604482015260640161030f565b336001600160a01b03841614156105515760405162461bcd60e51b815260206004820152602560248201527f557365722063616e6e6f7420616464207468656d6573656c766573206173206660448201527f7269656e64000000000000000000000000000000000000000000000000000000606482015260840161030f565b61055b3384610c1f565b156105a85760405162461bcd60e51b815260206004820152601f60248201527f54686573652075736572732061726520616c726561647920667269656e647300604482015260640161030f565b6105e9338484848080601f016020809104026020016040519081016040528093929190818152602001838380828437600092019190915250610d1192505050565b336000818152600160205260409020805461068e928692909161060b9061117d565b80601f01602080910402602001604051908101604052809291908181526020018280546106379061117d565b80156106845780601f1061065957610100808354040283529160200191610684565b820191906000526020600020905b81548152906001019060200180831161066757829003601f168201915b5050505050610d11565b505050565b60606000805480602002602001604051908101604052809291908181526020016000905b8282101561078e57838290600052602060002090600202016040518060400160405290816000820180546106ea9061117d565b80601f01602080910402602001604051908101604052809291908181526020018280546107169061117d565b80156107635780601f1061073857610100808354040283529160200191610763565b820191906000526020600020905b81548152906001019060200180831161074657829003601f168201915b50505091835250506001918201546001600160a01b03166020918201529183529290920191016106b7565b50505050905090565b3360009081526001602081815260408084209092018054835181840281018401909452808452606094919290919084015b8282101561078e576000848152602090819020604080518082019091526002850290910180546001600160a01b0316825260018101805492939192918401916108109061117d565b80601f016020809104026020016040519081016040528092919081815260200182805461083c9061117d565b80156108895780601f1061085e57610100808354040283529160200191610889565b820191906000526020600020905b81548152906001019060200180831161086c57829003601f168201915b505050505081525050815260200190600101906107c8565b60606108ac8261015a565b6108f85760405162461bcd60e51b815260206004820152601660248201527f75736572206973206e6f74207265676973746572656400000000000000000000604482015260640161030f565b6001600160a01b0382166000908152600160205260409020805461091b9061117d565b80601f01602080910402602001604051908101604052809291908181526020018280546109479061117d565b80156109945780601f1061096957610100808354040283529160200191610994565b820191906000526020600020905b81548152906001019060200180831161097757829003601f168201915b50505050509050919050565b6109a93361015a565b6109f55760405162461bcd60e51b815260206004820152601760248201527f43726561746520616e206163636f756e74206669727374000000000000000000604482015260640161030f565b6109fe8361015a565b610a4a5760405162461bcd60e51b815260206004820152601660248201527f75736572206973206e6f74207265676973746572656400000000000000000000604482015260640161030f565b610a543384610c1f565b610aa05760405162461bcd60e51b815260206004820181905260248201527f596f7520617265206e6f7420667269656e642077697468207468652075736572604482015260640161030f565b6000610aac3385610b88565b905060006040518060600160405280336001600160a01b0316815260200142815260200185858080601f0160208091040260200160405190810160405280939291908181526020018383808284376000920182905250939094525050848152600260208181526040808420805460018082018355918652948390208751600390960201805473ffffffffffffffffffffffffffffffffffffffff19166001600160a01b03909616959095178555868301519085015585015180519596508695939450610b7e9392850192910190610e1c565b5050505050505050565b6000816001600160a01b0316836001600160a01b03161015610beb576040516bffffffffffffffffffffffff19606085811b8216602084015284901b1660348201526048015b604051602081830303815290604052805190602001209050610c19565b6040516bffffffffffffffffffffffff19606084811b8216602084015285901b166034820152604801610bce565b92915050565b6001600160a01b03808216600090815260016020819052604080832082015493861683528220015490911015610c53579091905b60005b6001600160a01b03841660009081526001602081905260409091200154811015610d0757826001600160a01b031660016000866001600160a01b03166001600160a01b031681526020019081526020016000206001018281548110610ccb57634e487b7160e01b600052603260045260246000fd5b60009182526020909120600290910201546001600160a01b03161415610cf5576001915050610c19565b80610cff816111b8565b915050610c56565b5060009392505050565b6040805180820182526001600160a01b038481168252602080830185815287831660009081526001808452958120860180548088018255908252908390208551600290920201805473ffffffffffffffffffffffffffffffffffffffff19169190941617835551805193948594610d8f939185019290910190610e1c565b50505050505050565b828054610da49061117d565b90600052602060002090601f016020900481019282610dc65760008555610e0c565b82601f10610ddf5782800160ff19823516178555610e0c565b82800160010185558215610e0c579182015b82811115610e0c578235825591602001919060010190610df1565b50610e18929150610e90565b5090565b828054610e289061117d565b90600052602060002090601f016020900481019282610e4a5760008555610e0c565b82601f10610e6357805160ff1916838001178555610e0c565b82800160010185558215610e0c579182015b82811115610e0c578251825591602001919060010190610e75565b5b80821115610e185760008155600101610e91565b80356001600160a01b0381168114610ebc57600080fd5b919050565b60008083601f840112610ed2578182fd5b50813567ffffffffffffffff811115610ee9578182fd5b602083019150836020828501011115610f0157600080fd5b9250929050565b600060208284031215610f19578081fd5b610f2282610ea5565b9392505050565b600080600060408486031215610f3d578182fd5b610f4684610ea5565b9250602084013567ffffffffffffffff811115610f61578283fd5b610f6d86828701610ec1565b9497909650939450505050565b60008060208385031215610f8c578182fd5b823567ffffffffffffffff811115610fa2578283fd5b610fae85828601610ec1565b90969095509350505050565b60008151808452815b81811015610fdf57602081850181015186830182015201610fc3565b81811115610ff05782602083870101525b50601f01601f19169290920160200192915050565b60006020808301818452808551808352604092508286019150828160051b870101848801865b8381101561107557888303603f190185528151805187855261104f88860182610fba565b918901516001600160a01b0316948901949094529487019492509086019060010161102b565b509098975050505050505050565b60006020808301818452808551808352604092508286019150828160051b870101848801865b8381101561107557888303603f19018552815180516001600160a01b031684528701518784018790526110de87850182610fba565b95880195935050908601906001016110a9565b60006020808301818452808551808352604092508286019150828160051b870101848801865b8381101561107557888303603f19018552815180516001600160a01b031684528781015188850152860151606087850181905261115681860183610fba565b968901969450505090860190600101611117565b602081526000610f226020830184610fba565b600181811c9082168061119157607f821691505b602082108114156111b257634e487b7160e01b600052602260045260246000fd5b50919050565b60006000198214156111d857634e487b7160e01b81526011600452602481fd5b506001019056fea2646970667358221220f7d68f837f0053bc0a21aefbde827cb50d1890baf78b676e395b855d2e8f066d64736f6c63430008040033",
  "linkReferences": {},
  "deployedLinkReferences": {}
}