{
  "_format": "hh-sol-artifact-1",
  "contractName": "Donation",
  "sourceName": "contracts/Donation.sol",
  "abi": [
    {
      "inputs": [],
      "stateMutability": "nonpayable",
      "type": "constructor"
    },
    {
      "anonymous": false,
      "inputs": [
        {
          "indexed": false,
          "internalType": "address",
          "name": "donor",
          "type": "address"
        },
        {
          "indexed": false,
          "internalType": "uint256",
          "name": "amount",
          "type": "uint256"
        }
      ],
      "name": "DonationReceived",
      "type": "event"
    },
    {
      "inputs": [],
      "name": "donate",
      "outputs": [],
      "stateMutability": "payable",
      "type": "function"
    },
    {
      "inputs": [
        {
          "internalType": "uint256",
          "name": "",
          "type": "uint256"
        }
      ],
      "name": "donorList",
      "outputs": [
        {
          "internalType": "address",
          "name": "",
          "type": "address"
        }
      ],
      "stateMutability": "view",
      "type": "function"
    },
    {
      "inputs": [
        {
          "internalType": "address",
          "name": "",
          "type": "address"
        }
      ],
      "name": "donors",
      "outputs": [
        {
          "internalType": "bool",
          "name": "",
          "type": "bool"
        }
      ],
      "stateMutability": "view",
      "type": "function"
    },
    {
      "inputs": [
        {
          "internalType": "uint256",
          "name": "",
          "type": "uint256"
        }
      ],
      "name": "donorsList",
      "outputs": [
        {
          "internalType": "address",
          "name": "from",
          "type": "address"
        },
        {
          "internalType": "uint256",
          "name": "value",
          "type": "uint256"
        },
        {
          "internalType": "uint256",
          "name": "timestamp",
          "type": "uint256"
        }
      ],
      "stateMutability": "view",
      "type": "function"
    },
    {
      "inputs": [
        {
          "internalType": "address",
          "name": "",
          "type": "address"
        },
        {
          "internalType": "uint256",
          "name": "",
          "type": "uint256"
        }
      ],
      "name": "donorsLists",
      "outputs": [
        {
          "internalType": "address",
          "name": "from",
          "type": "address"
        },
        {
          "internalType": "uint256",
          "name": "value",
          "type": "uint256"
        },
        {
          "internalType": "uint256",
          "name": "timestamp",
          "type": "uint256"
        }
      ],
      "stateMutability": "view",
      "type": "function"
    },
    {
      "inputs": [],
      "name": "getAllDonors",
      "outputs": [
        {
          "components": [
            {
              "internalType": "address",
              "name": "from",
              "type": "address"
            },
            {
              "internalType": "uint256",
              "name": "value",
              "type": "uint256"
            },
            {
              "internalType": "uint256",
              "name": "timestamp",
              "type": "uint256"
            }
          ],
          "internalType": "struct Donation.Donor[]",
          "name": "",
          "type": "tuple[]"
        }
      ],
      "stateMutability": "view",
      "type": "function"
    },
    {
      "inputs": [],
      "name": "getContractBalance",
      "outputs": [
        {
          "internalType": "uint256",
          "name": "",
          "type": "uint256"
        }
      ],
      "stateMutability": "view",
      "type": "function"
    },
    {
      "inputs": [],
      "name": "owner",
      "outputs": [
        {
          "internalType": "address",
          "name": "",
          "type": "address"
        }
      ],
      "stateMutability": "view",
      "type": "function"
    },
    {
      "inputs": [],
      "name": "totalDonations",
      "outputs": [
        {
          "internalType": "uint256",
          "name": "",
          "type": "uint256"
        }
      ],
      "stateMutability": "view",
      "type": "function"
    },
    {
      "inputs": [],
      "name": "widthdraw",
      "outputs": [],
      "stateMutability": "nonpayable",
      "type": "function"
    }
  ],
  "bytecode": "0x608060405234801561001057600080fd5b50600080546001600160a01b03191633179055610762806100326000396000f3fe6080604052600436106100b15760003560e01c806398e36b0411610069578063ca0cdea81161004e578063ca0cdea8146101ce578063de2ed8931461020e578063ed88c68e1461022457600080fd5b806398e36b041461018c578063a9627136146101ae57600080fd5b80636f9fb98a1161009a5780636f9fb98a1461010a5780637bade60c146101275780638da5cb5b1461016c57600080fd5b806352b50a2a146100b65780635eed3dcb146100cd575b600080fd5b3480156100c257600080fd5b506100cb61022c565b005b3480156100d957600080fd5b506100ed6100e8366004610675565b61033c565b6040516001600160a01b0390911681526020015b60405180910390f35b34801561011657600080fd5b50475b604051908152602001610101565b34801561013357600080fd5b5061014761014236600461064c565b610366565b604080516001600160a01b039094168452602084019290925290820152606001610101565b34801561017857600080fd5b506000546100ed906001600160a01b031681565b34801561019857600080fd5b506101a16103b2565b604051610101919061068d565b3480156101ba57600080fd5b506101476101c9366004610675565b610434565b3480156101da57600080fd5b506101fe6101e936600461062b565b60026020526000908152604090205460ff1681565b6040519015158152602001610101565b34801561021a57600080fd5b5061011960015481565b6100cb610471565b6000546001600160a01b031633146102b15760405162461bcd60e51b815260206004820152602760248201527f4f6e6c7920746865206f776e6572206f662074686520636f6e7472616374206360448201527f616e2063616c6c0000000000000000000000000000000000000000000000000060648201526084015b60405180910390fd5b47806102ff5760405162461bcd60e51b815260206004820152601860248201527f436f6e74726163742062616c616e6365206973205a45524f000000000000000060448201526064016102a8565b600080546040516001600160a01b039091169183156108fc02918491818181858888f19350505050158015610338573d6000803e3d6000fd5b5050565b6003818154811061034c57600080fd5b6000918252602090912001546001600160a01b0316905081565b6005602052816000526040600020818154811061038257600080fd5b60009182526020909120600390910201805460018201546002909201546001600160a01b03909116935090915083565b60606004805480602002602001604051908101604052809291908181526020016000905b8282101561042b576000848152602090819020604080516060810182526003860290920180546001600160a01b03168352600180820154848601526002909101549183019190915290835290920191016103d6565b50505050905090565b6004818154811061044457600080fd5b60009182526020909120600390910201805460018201546002909201546001600160a01b03909116925083565b600034116104e75760405162461bcd60e51b815260206004820152602960248201527f446f6e6174696f6e20616d6f756e74206d75737420626520677265617465722060448201527f7468656e205a45524f000000000000000000000000000000000000000000000060648201526084016102a8565b604080516060810182523381523460208201818152429383019384526004805460018082018355600092835294517f8a35acfbc15ff81a39ae7d344fd709f28e8600b4aa8c65c6b64bfe7fe36bd19b600390920291820180547fffffffffffffffffffffffff0000000000000000000000000000000000000000166001600160a01b0390921691909117905591517f8a35acfbc15ff81a39ae7d344fd709f28e8600b4aa8c65c6b64bfe7fe36bd19c83015593517f8a35acfbc15ff81a39ae7d344fd709f28e8600b4aa8c65c6b64bfe7fe36bd19d9091015581549092906105d09084906106ef565b9091555050604080513381523460208201527f264f630d9efa0d07053a31163641d9fcc0adafc9d9e76f1c37c2ce3a558d2c52910160405180910390a1565b80356001600160a01b038116811461062657600080fd5b919050565b60006020828403121561063c578081fd5b6106458261060f565b9392505050565b6000806040838503121561065e578081fd5b6106678361060f565b946020939093013593505050565b600060208284031215610686578081fd5b5035919050565b602080825282518282018190526000919060409081850190868401855b828110156106e257815180516001600160a01b03168552868101518786015285015185850152606090930192908501906001016106aa565b5091979650505050505050565b60008219821115610727577f4e487b710000000000000000000000000000000000000000000000000000000081526011600452602481fd5b50019056fea2646970667358221220db3dc0c564661ba594788068447645f8f2e1691ec05eea155482aebe71d4c4ed64736f6c63430008040033",
  "linkReferences": {},
  "deployedLinkReferences": {}
}