{
  "_format": "hh-sol-artifact-1",
  "contractName": "NFTMarketplace",
  "sourceName": "contracts/NFTMarketplace.sol",
  "abi": [
    {
      "inputs": [],
      "stateMutability": "nonpayable",
      "type": "constructor"
    },
    {
      "anonymous": false,
      "inputs": [
        {
          "indexed": true,
          "internalType": "address",
          "name": "owner",
          "type": "address"
        },
        {
          "indexed": true,
          "internalType": "address",
          "name": "approved",
          "type": "address"
        },
        {
          "indexed": true,
          "internalType": "uint256",
          "name": "tokenId",
          "type": "uint256"
        }
      ],
      "name": "Approval",
      "type": "event"
    },
    {
      "anonymous": false,
      "inputs": [
        {
          "indexed": true,
          "internalType": "address",
          "name": "owner",
          "type": "address"
        },
        {
          "indexed": true,
          "internalType": "address",
          "name": "operator",
          "type": "address"
        },
        {
          "indexed": false,
          "internalType": "bool",
          "name": "approved",
          "type": "bool"
        }
      ],
      "name": "ApprovalForAll",
      "type": "event"
    },
    {
      "anonymous": false,
      "inputs": [
        {
          "indexed": false,
          "internalType": "uint256",
          "name": "listingId",
          "type": "uint256"
        },
        {
          "indexed": true,
          "internalType": "address",
          "name": "seller",
          "type": "address"
        },
        {
          "indexed": true,
          "internalType": "address",
          "name": "bidder",
          "type": "address"
        },
        {
          "indexed": false,
          "internalType": "uint256",
          "name": "bid",
          "type": "uint256"
        }
      ],
      "name": "AuctionCompleted",
      "type": "event"
    },
    {
      "anonymous": false,
      "inputs": [
        {
          "indexed": true,
          "internalType": "address",
          "name": "seller",
          "type": "address"
        },
        {
          "indexed": false,
          "internalType": "uint256",
          "name": "price",
          "type": "uint256"
        },
        {
          "indexed": false,
          "internalType": "uint256",
          "name": "tokenId",
          "type": "uint256"
        },
        {
          "indexed": false,
          "internalType": "uint256",
          "name": "startAt",
          "type": "uint256"
        },
        {
          "indexed": false,
          "internalType": "uint256",
          "name": "endAt",
          "type": "uint256"
        }
      ],
      "name": "AuctionCreated",
      "type": "event"
    },
    {
      "anonymous": false,
      "inputs": [
        {
          "indexed": false,
          "internalType": "uint256",
          "name": "listingId",
          "type": "uint256"
        },
        {
          "indexed": true,
          "internalType": "address",
          "name": "bidder",
          "type": "address"
        },
        {
          "indexed": false,
          "internalType": "uint256",
          "name": "bid",
          "type": "uint256"
        }
      ],
      "name": "BidCreated",
      "type": "event"
    },
    {
      "anonymous": false,
      "inputs": [
        {
          "indexed": true,
          "internalType": "uint256",
          "name": "tokenId",
          "type": "uint256"
        },
        {
          "indexed": false,
          "internalType": "address",
          "name": "seller",
          "type": "address"
        },
        {
          "indexed": false,
          "internalType": "address",
          "name": "owner",
          "type": "address"
        },
        {
          "indexed": false,
          "internalType": "uint256",
          "name": "price",
          "type": "uint256"
        },
        {
          "indexed": false,
          "internalType": "bool",
          "name": "sold",
          "type": "bool"
        }
      ],
      "name": "MarketItemCreated",
      "type": "event"
    },
    {
      "anonymous": false,
      "inputs": [
        {
          "indexed": true,
          "internalType": "address",
          "name": "from",
          "type": "address"
        },
        {
          "indexed": true,
          "internalType": "address",
          "name": "to",
          "type": "address"
        },
        {
          "indexed": true,
          "internalType": "uint256",
          "name": "tokenId",
          "type": "uint256"
        }
      ],
      "name": "Transfer",
      "type": "event"
    },
    {
      "anonymous": false,
      "inputs": [
        {
          "indexed": false,
          "internalType": "uint256",
          "name": "listingId",
          "type": "uint256"
        },
        {
          "indexed": true,
          "internalType": "address",
          "name": "bidder",
          "type": "address"
        },
        {
          "indexed": false,
          "internalType": "uint256",
          "name": "bid",
          "type": "uint256"
        }
      ],
      "name": "WithdrawBid",
      "type": "event"
    },
    {
      "inputs": [],
      "name": "AuctionCounter",
      "outputs": [
        {
          "internalType": "uint256",
          "name": "",
          "type": "uint256"
        }
      ],
      "stateMutability": "view",
      "type": "function"
    },
    {
      "inputs": [],
      "name": "_numberOfBid",
      "outputs": [
        {
          "internalType": "uint256",
          "name": "_value",
          "type": "uint256"
        }
      ],
      "stateMutability": "view",
      "type": "function"
    },
    {
      "inputs": [
        {
          "internalType": "address",
          "name": "to",
          "type": "address"
        },
        {
          "internalType": "uint256",
          "name": "tokenId",
          "type": "uint256"
        }
      ],
      "name": "approve",
      "outputs": [],
      "stateMutability": "nonpayable",
      "type": "function"
    },
    {
      "inputs": [
        {
          "internalType": "address",
          "name": "owner",
          "type": "address"
        }
      ],
      "name": "balanceOf",
      "outputs": [
        {
          "internalType": "uint256",
          "name": "",
          "type": "uint256"
        }
      ],
      "stateMutability": "view",
      "type": "function"
    },
    {
      "inputs": [
        {
          "internalType": "uint256",
          "name": "tokenId",
          "type": "uint256"
        }
      ],
      "name": "bid",
      "outputs": [
        {
          "internalType": "uint256",
          "name": "",
          "type": "uint256"
        }
      ],
      "stateMutability": "payable",
      "type": "function"
    },
    {
      "inputs": [
        {
          "internalType": "uint256",
          "name": "",
          "type": "uint256"
        }
      ],
      "name": "bidders",
      "outputs": [
        {
          "internalType": "address",
          "name": "",
          "type": "address"
        }
      ],
      "stateMutability": "view",
      "type": "function"
    },
    {
      "inputs": [
        {
          "internalType": "uint256",
          "name": "",
          "type": "uint256"
        },
        {
          "internalType": "address",
          "name": "",
          "type": "address"
        }
      ],
      "name": "bids",
      "outputs": [
        {
          "internalType": "uint256",
          "name": "",
          "type": "uint256"
        }
      ],
      "stateMutability": "view",
      "type": "function"
    },
    {
      "inputs": [
        {
          "internalType": "uint256",
          "name": "tokenId",
          "type": "uint256"
        }
      ],
      "name": "buyNFTWithToken",
      "outputs": [
        {
          "internalType": "address",
          "name": "",
          "type": "address"
        }
      ],
      "stateMutability": "payable",
      "type": "function"
    },
    {
      "inputs": [
        {
          "internalType": "uint256",
          "name": "tokenId",
          "type": "uint256"
        }
      ],
      "name": "completeAuction",
      "outputs": [],
      "stateMutability": "payable",
      "type": "function"
    },
    {
      "inputs": [
        {
          "internalType": "uint256",
          "name": "auctionPrice",
          "type": "uint256"
        },
        {
          "internalType": "uint256",
          "name": "tokenId",
          "type": "uint256"
        },
        {
          "internalType": "uint256",
          "name": "durationInSeconds",
          "type": "uint256"
        }
      ],
      "name": "createAuctionListing",
      "outputs": [
        {
          "internalType": "uint256",
          "name": "",
          "type": "uint256"
        }
      ],
      "stateMutability": "nonpayable",
      "type": "function"
    },
    {
      "inputs": [
        {
          "internalType": "uint256",
          "name": "tokenId",
          "type": "uint256"
        }
      ],
      "name": "createMarketSale",
      "outputs": [],
      "stateMutability": "payable",
      "type": "function"
    },
    {
      "inputs": [
        {
          "internalType": "string",
          "name": "tokenURI",
          "type": "string"
        },
        {
          "internalType": "uint256",
          "name": "price",
          "type": "uint256"
        },
        {
          "internalType": "uint256",
          "name": "tokenPrice",
          "type": "uint256"
        }
      ],
      "name": "createToken",
      "outputs": [
        {
          "internalType": "uint256",
          "name": "",
          "type": "uint256"
        }
      ],
      "stateMutability": "payable",
      "type": "function"
    },
    {
      "inputs": [],
      "name": "fetchItemsAuctionListed",
      "outputs": [
        {
          "components": [
            {
              "internalType": "uint256",
              "name": "tokenId",
              "type": "uint256"
            },
            {
              "internalType": "address payable",
              "name": "seller",
              "type": "address"
            },
            {
              "internalType": "address payable",
              "name": "owner",
              "type": "address"
            },
            {
              "internalType": "uint256",
              "name": "price",
              "type": "uint256"
            },
            {
              "internalType": "uint256",
              "name": "netPrice",
              "type": "uint256"
            },
            {
              "internalType": "bool",
              "name": "sold",
              "type": "bool"
            },
            {
              "internalType": "bool",
              "name": "auction",
              "type": "bool"
            },
            {
              "internalType": "uint256",
              "name": "startAt",
              "type": "uint256"
            },
            {
              "internalType": "uint256",
              "name": "endAt",
              "type": "uint256"
            },
            {
              "internalType": "uint256",
              "name": "tokenPrice",
              "type": "uint256"
            },
            {
              "internalType": "uint256",
              "name": "bidId",
              "type": "uint256"
            }
          ],
          "internalType": "struct NFTMarketplace.MarketItem[]",
          "name": "",
          "type": "tuple[]"
        }
      ],
      "stateMutability": "view",
      "type": "function"
    },
    {
      "inputs": [],
      "name": "fetchItemsListed",
      "outputs": [
        {
          "components": [
            {
              "internalType": "uint256",
              "name": "tokenId",
              "type": "uint256"
            },
            {
              "internalType": "address payable",
              "name": "seller",
              "type": "address"
            },
            {
              "internalType": "address payable",
              "name": "owner",
              "type": "address"
            },
            {
              "internalType": "uint256",
              "name": "price",
              "type": "uint256"
            },
            {
              "internalType": "uint256",
              "name": "netPrice",
              "type": "uint256"
            },
            {
              "internalType": "bool",
              "name": "sold",
              "type": "bool"
            },
            {
              "internalType": "bool",
              "name": "auction",
              "type": "bool"
            },
            {
              "internalType": "uint256",
              "name": "startAt",
              "type": "uint256"
            },
            {
              "internalType": "uint256",
              "name": "endAt",
              "type": "uint256"
            },
            {
              "internalType": "uint256",
              "name": "tokenPrice",
              "type": "uint256"
            },
            {
              "internalType": "uint256",
              "name": "bidId",
              "type": "uint256"
            }
          ],
          "internalType": "struct NFTMarketplace.MarketItem[]",
          "name": "",
          "type": "tuple[]"
        }
      ],
      "stateMutability": "view",
      "type": "function"
    },
    {
      "inputs": [],
      "name": "fetchMarketAuctionItems",
      "outputs": [
        {
          "components": [
            {
              "internalType": "uint256",
              "name": "tokenId",
              "type": "uint256"
            },
            {
              "internalType": "address payable",
              "name": "seller",
              "type": "address"
            },
            {
              "internalType": "address payable",
              "name": "owner",
              "type": "address"
            },
            {
              "internalType": "uint256",
              "name": "price",
              "type": "uint256"
            },
            {
              "internalType": "uint256",
              "name": "netPrice",
              "type": "uint256"
            },
            {
              "internalType": "bool",
              "name": "sold",
              "type": "bool"
            },
            {
              "internalType": "bool",
              "name": "auction",
              "type": "bool"
            },
            {
              "internalType": "uint256",
              "name": "startAt",
              "type": "uint256"
            },
            {
              "internalType": "uint256",
              "name": "endAt",
              "type": "uint256"
            },
            {
              "internalType": "uint256",
              "name": "tokenPrice",
              "type": "uint256"
            },
            {
              "internalType": "uint256",
              "name": "bidId",
              "type": "uint256"
            }
          ],
          "internalType": "struct NFTMarketplace.MarketItem[]",
          "name": "",
          "type": "tuple[]"
        }
      ],
      "stateMutability": "view",
      "type": "function"
    },
    {
      "inputs": [],
      "name": "fetchMarketItems",
      "outputs": [
        {
          "components": [
            {
              "internalType": "uint256",
              "name": "tokenId",
              "type": "uint256"
            },
            {
              "internalType": "address payable",
              "name": "seller",
              "type": "address"
            },
            {
              "internalType": "address payable",
              "name": "owner",
              "type": "address"
            },
            {
              "internalType": "uint256",
              "name": "price",
              "type": "uint256"
            },
            {
              "internalType": "uint256",
              "name": "netPrice",
              "type": "uint256"
            },
            {
              "internalType": "bool",
              "name": "sold",
              "type": "bool"
            },
            {
              "internalType": "bool",
              "name": "auction",
              "type": "bool"
            },
            {
              "internalType": "uint256",
              "name": "startAt",
              "type": "uint256"
            },
            {
              "internalType": "uint256",
              "name": "endAt",
              "type": "uint256"
            },
            {
              "internalType": "uint256",
              "name": "tokenPrice",
              "type": "uint256"
            },
            {
              "internalType": "uint256",
              "name": "bidId",
              "type": "uint256"
            }
          ],
          "internalType": "struct NFTMarketplace.MarketItem[]",
          "name": "",
          "type": "tuple[]"
        }
      ],
      "stateMutability": "view",
      "type": "function"
    },
    {
      "inputs": [],
      "name": "fetchMyNFTs",
      "outputs": [
        {
          "components": [
            {
              "internalType": "uint256",
              "name": "tokenId",
              "type": "uint256"
            },
            {
              "internalType": "address payable",
              "name": "seller",
              "type": "address"
            },
            {
              "internalType": "address payable",
              "name": "owner",
              "type": "address"
            },
            {
              "internalType": "uint256",
              "name": "price",
              "type": "uint256"
            },
            {
              "internalType": "uint256",
              "name": "netPrice",
              "type": "uint256"
            },
            {
              "internalType": "bool",
              "name": "sold",
              "type": "bool"
            },
            {
              "internalType": "bool",
              "name": "auction",
              "type": "bool"
            },
            {
              "internalType": "uint256",
              "name": "startAt",
              "type": "uint256"
            },
            {
              "internalType": "uint256",
              "name": "endAt",
              "type": "uint256"
            },
            {
              "internalType": "uint256",
              "name": "tokenPrice",
              "type": "uint256"
            },
            {
              "internalType": "uint256",
              "name": "bidId",
              "type": "uint256"
            }
          ],
          "internalType": "struct NFTMarketplace.MarketItem[]",
          "name": "",
          "type": "tuple[]"
        }
      ],
      "stateMutability": "view",
      "type": "function"
    },
    {
      "inputs": [
        {
          "internalType": "uint256",
          "name": "tokenId",
          "type": "uint256"
        }
      ],
      "name": "fetchNFTBids",
      "outputs": [
        {
          "components": [
            {
              "internalType": "uint256",
              "name": "tokenId",
              "type": "uint256"
            },
            {
              "internalType": "uint256",
              "name": "bidId",
              "type": "uint256"
            },
            {
              "internalType": "address",
              "name": "bidAddress",
              "type": "address"
            },
            {
              "internalType": "uint256",
              "name": "bidAmount",
              "type": "uint256"
            },
            {
              "internalType": "uint256",
              "name": "bitEnding",
              "type": "uint256"
            }
          ],
          "internalType": "struct NFTMarketplace.userBidding[]",
          "name": "",
          "type": "tuple[]"
        }
      ],
      "stateMutability": "view",
      "type": "function"
    },
    {
      "inputs": [],
      "name": "fetchUserBids",
      "outputs": [
        {
          "components": [
            {
              "internalType": "uint256",
              "name": "tokenId",
              "type": "uint256"
            },
            {
              "internalType": "uint256",
              "name": "bidId",
              "type": "uint256"
            },
            {
              "internalType": "address",
              "name": "bidAddress",
              "type": "address"
            },
            {
              "internalType": "uint256",
              "name": "bidAmount",
              "type": "uint256"
            },
            {
              "internalType": "uint256",
              "name": "bitEnding",
              "type": "uint256"
            }
          ],
          "internalType": "struct NFTMarketplace.userBidding[]",
          "name": "",
          "type": "tuple[]"
        }
      ],
      "stateMutability": "view",
      "type": "function"
    },
    {
      "inputs": [],
      "name": "getAddresses",
      "outputs": [
        {
          "internalType": "address",
          "name": "",
          "type": "address"
        }
      ],
      "stateMutability": "view",
      "type": "function"
    },
    {
      "inputs": [
        {
          "internalType": "uint256",
          "name": "tokenId",
          "type": "uint256"
        }
      ],
      "name": "getApproved",
      "outputs": [
        {
          "internalType": "address",
          "name": "",
          "type": "address"
        }
      ],
      "stateMutability": "view",
      "type": "function"
    },
    {
      "inputs": [],
      "name": "getBidders",
      "outputs": [
        {
          "internalType": "address[]",
          "name": "",
          "type": "address[]"
        }
      ],
      "stateMutability": "view",
      "type": "function"
    },
    {
      "inputs": [],
      "name": "getContractBalance",
      "outputs": [
        {
          "internalType": "uint256",
          "name": "",
          "type": "uint256"
        }
      ],
      "stateMutability": "view",
      "type": "function"
    },
    {
      "inputs": [
        {
          "internalType": "uint256",
          "name": "_tokenId",
          "type": "uint256"
        }
      ],
      "name": "getHighestBidder",
      "outputs": [
        {
          "internalType": "address",
          "name": "",
          "type": "address"
        }
      ],
      "stateMutability": "view",
      "type": "function"
    },
    {
      "inputs": [],
      "name": "getListingPrice",
      "outputs": [
        {
          "internalType": "uint256",
          "name": "",
          "type": "uint256"
        }
      ],
      "stateMutability": "view",
      "type": "function"
    },
    {
      "inputs": [
        {
          "internalType": "uint256",
          "name": "",
          "type": "uint256"
        }
      ],
      "name": "highestBidder",
      "outputs": [
        {
          "internalType": "address",
          "name": "",
          "type": "address"
        }
      ],
      "stateMutability": "view",
      "type": "function"
    },
    {
      "inputs": [
        {
          "internalType": "address",
          "name": "owner",
          "type": "address"
        },
        {
          "internalType": "address",
          "name": "operator",
          "type": "address"
        }
      ],
      "name": "isApprovedForAll",
      "outputs": [
        {
          "internalType": "bool",
          "name": "",
          "type": "bool"
        }
      ],
      "stateMutability": "view",
      "type": "function"
    },
    {
      "inputs": [
        {
          "internalType": "uint256",
          "name": "tokenId",
          "type": "uint256"
        }
      ],
      "name": "isAuctionExpired",
      "outputs": [
        {
          "internalType": "bool",
          "name": "",
          "type": "bool"
        }
      ],
      "stateMutability": "view",
      "type": "function"
    },
    {
      "inputs": [
        {
          "internalType": "uint256",
          "name": "tokenId",
          "type": "uint256"
        }
      ],
      "name": "isAuctionOpen",
      "outputs": [
        {
          "internalType": "bool",
          "name": "",
          "type": "bool"
        }
      ],
      "stateMutability": "view",
      "type": "function"
    },
    {
      "inputs": [],
      "name": "name",
      "outputs": [
        {
          "internalType": "string",
          "name": "",
          "type": "string"
        }
      ],
      "stateMutability": "view",
      "type": "function"
    },
    {
      "inputs": [
        {
          "internalType": "uint256",
          "name": "tokenId",
          "type": "uint256"
        }
      ],
      "name": "ownerOf",
      "outputs": [
        {
          "internalType": "address",
          "name": "",
          "type": "address"
        }
      ],
      "stateMutability": "view",
      "type": "function"
    },
    {
      "inputs": [
        {
          "internalType": "uint256",
          "name": "tokenId",
          "type": "uint256"
        },
        {
          "internalType": "uint256",
          "name": "price",
          "type": "uint256"
        }
      ],
      "name": "resellToken",
      "outputs": [],
      "stateMutability": "payable",
      "type": "function"
    },
    {
      "inputs": [
        {
          "internalType": "address",
          "name": "from",
          "type": "address"
        },
        {
          "internalType": "address",
          "name": "to",
          "type": "address"
        },
        {
          "internalType": "uint256",
          "name": "tokenId",
          "type": "uint256"
        }
      ],
      "name": "safeTransferFrom",
      "outputs": [],
      "stateMutability": "nonpayable",
      "type": "function"
    },
    {
      "inputs": [
        {
          "internalType": "address",
          "name": "from",
          "type": "address"
        },
        {
          "internalType": "address",
          "name": "to",
          "type": "address"
        },
        {
          "internalType": "uint256",
          "name": "tokenId",
          "type": "uint256"
        },
        {
          "internalType": "bytes",
          "name": "data",
          "type": "bytes"
        }
      ],
      "name": "safeTransferFrom",
      "outputs": [],
      "stateMutability": "nonpayable",
      "type": "function"
    },
    {
      "inputs": [
        {
          "internalType": "address",
          "name": "operator",
          "type": "address"
        },
        {
          "internalType": "bool",
          "name": "approved",
          "type": "bool"
        }
      ],
      "name": "setApprovalForAll",
      "outputs": [],
      "stateMutability": "nonpayable",
      "type": "function"
    },
    {
      "inputs": [
        {
          "internalType": "bytes4",
          "name": "interfaceId",
          "type": "bytes4"
        }
      ],
      "name": "supportsInterface",
      "outputs": [
        {
          "internalType": "bool",
          "name": "",
          "type": "bool"
        }
      ],
      "stateMutability": "view",
      "type": "function"
    },
    {
      "inputs": [],
      "name": "symbol",
      "outputs": [
        {
          "internalType": "string",
          "name": "",
          "type": "string"
        }
      ],
      "stateMutability": "view",
      "type": "function"
    },
    {
      "inputs": [
        {
          "internalType": "uint256",
          "name": "tokenId",
          "type": "uint256"
        }
      ],
      "name": "tokenURI",
      "outputs": [
        {
          "internalType": "string",
          "name": "",
          "type": "string"
        }
      ],
      "stateMutability": "view",
      "type": "function"
    },
    {
      "inputs": [
        {
          "internalType": "address",
          "name": "from",
          "type": "address"
        },
        {
          "internalType": "address",
          "name": "to",
          "type": "address"
        },
        {
          "internalType": "uint256",
          "name": "tokenId",
          "type": "uint256"
        }
      ],
      "name": "transferFrom",
      "outputs": [],
      "stateMutability": "nonpayable",
      "type": "function"
    },
    {
      "inputs": [
        {
          "internalType": "uint256",
          "name": "_listingPrice",
          "type": "uint256"
        }
      ],
      "name": "updateListingPrice",
      "outputs": [],
      "stateMutability": "payable",
      "type": "function"
    },
    {
      "inputs": [
        {
          "internalType": "uint256",
          "name": "",
          "type": "uint256"
        }
      ],
      "name": "userBiddingNFT",
      "outputs": [
        {
          "internalType": "uint256",
          "name": "tokenId",
          "type": "uint256"
        },
        {
          "internalType": "uint256",
          "name": "bidId",
          "type": "uint256"
        },
        {
          "internalType": "address",
          "name": "bidAddress",
          "type": "address"
        },
        {
          "internalType": "uint256",
          "name": "bidAmount",
          "type": "uint256"
        },
        {
          "internalType": "uint256",
          "name": "bitEnding",
          "type": "uint256"
        }
      ],
      "stateMutability": "view",
      "type": "function"
    },
    {
      "inputs": [],
      "name": "widthdraw",
      "outputs": [],
      "stateMutability": "nonpayable",
      "type": "function"
    },
    {
      "inputs": [
        {
          "internalType": "uint256",
          "name": "tokenId",
          "type": "uint256"
        },
        {
          "internalType": "uint256",
          "name": "bidId",
          "type": "uint256"
        }
      ],
      "name": "widthdrawBid",
      "outputs": [],
      "stateMutability": "payable",
      "type": "function"
    }
  ],
  "bytecode": "0x608060405266354a6ba7a18000600b553480156200001c57600080fd5b50604080518082018252600a81526943727970746f4b696e6760b01b602080830191825283518085019094526002845261434b60f01b90840152815191929162000069916000916200009f565b5080516200007f9060019060208401906200009f565b5050600160075550600c80546001600160a01b0319163317905562000182565b828054620000ad9062000145565b90600052602060002090601f016020900481019282620000d157600085556200011c565b82601f10620000ec57805160ff19168380011785556200011c565b828001600101855582156200011c579182015b828111156200011c578251825591602001919060010190620000ff565b506200012a9291506200012e565b5090565b5b808211156200012a57600081556001016200012f565b600181811c908216806200015a57607f821691505b602082108114156200017c57634e487b7160e01b600052602260045260246000fd5b50919050565b6144c680620001926000396000f3fe6080604052600436106102dc5760003560e01c80636352211e11610184578063bec2a7c5116100d6578063cff29dfd1161008a578063d4c6686111610064578063d4c668611461082d578063e219fc7514610840578063e985e9c51461085357600080fd5b8063cff29dfd146107d7578063d22f64d7146107f7578063d2c989a71461080d57600080fd5b8063c750cb79116100bb578063c750cb791461075f578063c87b56dd14610795578063cb6632ef146107b557600080fd5b8063bec2a7c514610737578063c5856cc91461074a57600080fd5b806395d89b4111610138578063ae677aa311610112578063ae677aa3146106f1578063b88d4fde14610704578063be9af5361461072457600080fd5b806395d89b41146106a9578063a22cb465146106be578063a39fac12146106de57600080fd5b80636f9fb98a116101695780636f9fb98a1461066157806370a08231146106745780638dbe52061461069457600080fd5b80636352211e146105b757806364cbd514146105d757600080fd5b806323b872dd1161023d578063454a2ab3116101f15780634c22f381116101cb5780634c22f3811461056057806352b50a2a146105805780635f3d48061461059557600080fd5b8063454a2ab31461052157806345f8fa801461053457806347efb2021461054957600080fd5b80633f1ffcec116102225780633f1ffcec1461049357806342842e0e146104cb578063451df52e146104eb57600080fd5b806323b872dd1461046057806339d268f91461048057600080fd5b80630f08efe0116102945780631389b117116102795780631389b11714610405578063202e37401461043857806321b628861461044d57600080fd5b80630f08efe0146103c457806312e85585146103e657600080fd5b8063081812fc116102c5578063081812fc14610338578063095ea7b3146103705780630ad486281461039257600080fd5b806301ffc9a7146102e157806306fdde0314610316575b600080fd5b3480156102ed57600080fd5b506103016102fc366004614061565b61089c565b60405190151581526020015b60405180910390f35b34801561032257600080fd5b5061032b610939565b60405161030d919061438a565b34801561034457600080fd5b506103586103533660046140f8565b6109cb565b6040516001600160a01b03909116815260200161030d565b34801561037c57600080fd5b5061039061038b366004614038565b6109f2565b005b34801561039e57600080fd5b506103016103ad3660046140f8565b6000908152600d6020526040902060070154421090565b3480156103d057600080fd5b506103d9610b29565b60405161030d9190614262565b3480156103f257600080fd5b50600b545b60405190815260200161030d565b34801561041157600080fd5b506103016104203660046140f8565b6000908152600d602052604090206007015442101590565b34801561044457600080fd5b506103d9610d6d565b61039061045b3660046140f8565b610fef565b34801561046c57600080fd5b5061039061047b366004613f4a565b6112c8565b61039061048e366004614132565b61133f565b34801561049f57600080fd5b506103f76104ae366004614110565b601060209081526000928352604080842090915290825290205481565b3480156104d757600080fd5b506103906104e6366004613f4a565b61158a565b3480156104f757600080fd5b506103586105063660046140f8565b6012602052600090815260409020546001600160a01b031681565b6103f761052f3660046140f8565b6115a5565b34801561054057600080fd5b506103d9611915565b34801561055557600080fd5b50600a546103f79081565b34801561056c57600080fd5b506103f761057b366004614153565b611b97565b34801561058c57600080fd5b50610390611cae565b3480156105a157600080fd5b506105aa611db6565b60405161030d9190614320565b3480156105c357600080fd5b506103586105d23660046140f8565b611fb1565b3480156105e357600080fd5b5061062b6105f23660046140f8565b600e6020526000908152604090208054600182015460028301546003840154600490940154929391926001600160a01b03909116919085565b6040805195865260208601949094526001600160a01b03909216928401929092526060830191909152608082015260a00161030d565b34801561066d57600080fd5b50476103f7565b34801561068057600080fd5b506103f761068f366004613efe565b612016565b3480156106a057600080fd5b506103d96120b0565b3480156106b557600080fd5b5061032b6123a4565b3480156106ca57600080fd5b506103906106d9366004613ffe565b6123b3565b3480156106ea57600080fd5b5033610358565b6103906106ff3660046140f8565b6123be565b34801561071057600080fd5b5061039061071f366004613f85565b612443565b6103906107323660046140f8565b6124c1565b6103f7610745366004614099565b61264d565b34801561075657600080fd5b506103d9612691565b34801561076b57600080fd5b5061035861077a3660046140f8565b6000908152601260205260409020546001600160a01b031690565b3480156107a157600080fd5b5061032b6107b03660046140f8565b612919565b3480156107c157600080fd5b506107ca612a22565b60405161030d9190614215565b3480156107e357600080fd5b506103586107f23660046140f8565b612a83565b34801561080357600080fd5b506103f7600f5481565b34801561081957600080fd5b506105aa6108283660046140f8565b612aad565b61035861083b3660046140f8565b612c9c565b61039061084e366004614132565b612d69565b34801561085f57600080fd5b5061030161086e366004613f18565b6001600160a01b03918216600090815260056020908152604080832093909416825291909152205460ff1690565b60006001600160e01b031982167f80ac58cd0000000000000000000000000000000000000000000000000000000014806108ff57506001600160e01b031982167f5b5e139f00000000000000000000000000000000000000000000000000000000145b8061093357507f01ffc9a7000000000000000000000000000000000000000000000000000000006001600160e01b03198316145b92915050565b606060008054610948906143f8565b80601f0160208091040260200160405190810160405280929190818152602001828054610974906143f8565b80156109c15780601f10610996576101008083540402835291602001916109c1565b820191906000526020600020905b8154815290600101906020018083116109a457829003601f168201915b5050505050905090565b60006109d682612eb0565b506000908152600460205260409020546001600160a01b031690565b60006109fd82611fb1565b9050806001600160a01b0316836001600160a01b03161415610a8c5760405162461bcd60e51b815260206004820152602160248201527f4552433732313a20617070726f76616c20746f2063757272656e74206f776e6560448201527f720000000000000000000000000000000000000000000000000000000000000060648201526084015b60405180910390fd5b336001600160a01b0382161480610aa85750610aa8813361086e565b610b1a5760405162461bcd60e51b815260206004820152603d60248201527f4552433732313a20617070726f76652063616c6c6572206973206e6f7420746f60448201527f6b656e206f776e6572206f7220617070726f76656420666f7220616c6c0000006064820152608401610a83565b610b248383612f14565b505050565b60606000610b3660085490565b90506000610b4360095490565b600854610b5091906143b5565b90506000808267ffffffffffffffff811115610b7c57634e487b7160e01b600052604160045260246000fd5b604051908082528060200260200182016040528015610c2057816020015b610c0d6040518061016001604052806000815260200160006001600160a01b0316815260200160006001600160a01b031681526020016000815260200160008152602001600015158152602001600015158152602001600081526020016000815260200160008152602001600081525090565b815260200190600190039081610b9a5790505b50905060005b84811015610d645730600d6000610c3e84600161439d565b81526020810191909152604001600020600201546001600160a01b03161415610d52576000610c6e82600161439d565b6000818152600d60209081526040918290208251610160810184528154815260018201546001600160a01b03908116938201939093526002820154909216928201929092526003820154606082015260048201546080820152600582015460ff808216151560a08401526101009182900416151560c0830152600683015460e08301526007830154908201526008820154610120820152600982015461014082015285519293509091859087908110610d3757634e487b7160e01b600052603260045260246000fd5b6020908102919091010152610d4d60018661439d565b945050505b80610d5c81614433565b915050610c26565b50949350505050565b60606000610d7a60085490565b905060008060005b83811015610ddd5733600d6000610d9a84600161439d565b81526020810191909152604001600020600201546001600160a01b03161415610dcb57610dc860018461439d565b92505b80610dd581614433565b915050610d82565b5060008267ffffffffffffffff811115610e0757634e487b7160e01b600052604160045260246000fd5b604051908082528060200260200182016040528015610eab57816020015b610e986040518061016001604052806000815260200160006001600160a01b0316815260200160006001600160a01b031681526020016000815260200160008152602001600015158152602001600015158152602001600081526020016000815260200160008152602001600081525090565b815260200190600190039081610e255790505b50905060005b84811015610d645733600d6000610ec984600161439d565b81526020810191909152604001600020600201546001600160a01b03161415610fdd576000610ef982600161439d565b6000818152600d60209081526040918290208251610160810184528154815260018201546001600160a01b03908116938201939093526002820154909216928201929092526003820154606082015260048201546080820152600582015460ff808216151560a08401526101009182900416151560c0830152600683015460e08301526007830154908201526008820154610120820152600982015461014082015285519293509091859087908110610fc257634e487b7160e01b600052603260045260246000fd5b6020908102919091010152610fd860018661439d565b945050505b80610fe781614433565b915050610eb1565b610ff7612f82565b6000818152600d60205260409020600701544210156110585760405162461bcd60e51b815260206004820152601560248201527f41756374696f6e206973207374696c6c206f70656e00000000000000000000006044820152606401610a83565b6000818152600d6020908152604080832060129092529091205460018201546001600160a01b0391821691163314806110995750336001600160a01b038216145b61110b5760405162461bcd60e51b815260206004820152602a60248201527f4f6e6c792073656c6c6572206f722077696e6e65722063616e20636f6d706c6560448201527f74652061756374696f6e000000000000000000000000000000000000000000006064820152608401610a83565b6001600160a01b03811615611230576002820180546001600160a01b0383166001600160a01b031990911617905560058201805461ffff1916600117905560006004830181905560068301819055600783015561116c600980546001019055565b61117b30828460000154612fdc565b60008381526010602090815260408083206001600160a01b038516845282528083208054908490558684526012835281842080546001600160a01b03199081169091556009870180548652600e90945291842084815560018101859055600281018054909316909255600382018490556004909101839055919055611200600a6131e2565b6001830154611218906001600160a01b031682613239565b506001820180546001600160a01b0319169055611253565b60058201805461ffff191690556000600483018190556006830181905560078301555b600182015460008481526010602090815260408083206001600160a01b0386811680865291845293829020548251898152938401529392909216917f7a59a6c36c8b7dc5080444722a7a194bf83837c893f984bcea8692e91551fc47910160405180910390a350506112c56001600755565b50565b6112d23382613361565b6113345760405162461bcd60e51b815260206004820152602d60248201527f4552433732313a2063616c6c6572206973206e6f7420746f6b656e206f776e6560448201526c1c881bdc88185c1c1c9bdd9959609a1b6064820152608401610a83565b610b24838383612fdc565b611347612f82565b6000828152600d60205260409020600701544210156113a85760405162461bcd60e51b815260206004820152601360248201527f41756374696f6e206d75737420626520656e64000000000000000000000000006044820152606401610a83565b6000828152601260205260409020546001600160a01b03163314156114355760405162461bcd60e51b815260206004820152602260248201527f486967657374206269646465722063616e6e6f7420776964746864726177206260448201527f69640000000000000000000000000000000000000000000000000000000000006064820152608401610a83565b6000828152601060209081526040808320338452909152902054806114c25760405162461bcd60e51b815260206004820152602160248201527f536f72727920796f752068617665206e6f742062696420696e20746865204e4660448201527f54000000000000000000000000000000000000000000000000000000000000006064820152608401610a83565b60008381526010602090815260408083203384528252808320839055848352600e9091528120818155600181018290556002810180546001600160a01b03191690556003810182905560040155611519600a6131e2565b60008381526010602090815260408083203380855292528220919091556115409082613239565b604080518481526020810183905233917f5eec25485ddf1aad4b5c89eda65e6053949901bfb1fe6f4c553e9c208b5bd5f8910160405180910390a2506115866001600755565b5050565b610b2483838360405180602001604052806000815250612443565b60006115af612f82565b6000828152600d6020526040902060070154421061160f5760405162461bcd60e51b815260206004820152601160248201527f41756374696f6e2068617320656e6465640000000000000000000000000000006044820152606401610a83565b6000828152600d6020526040902060018101546001600160a01b031633141561167a5760405162461bcd60e51b815260206004820152601a60248201527f63616e6e6f7420626964206f6e207768617420796f75206f776e0000000000006044820152606401610a83565b600083815260106020908152604080832033845290915290205480156116e25760405162461bcd60e51b815260206004820152601a60248201527f596f7520616c726561647920676976656e20796f7572206269640000000000006044820152606401610a83565b600084815260106020908152604080832033845290915281205461170790349061439d565b905082600401548110156117835760405162461bcd60e51b815260206004820152602960248201527f43616e6e6f74206269642062656c6f7720746865206c6174657374206269646460448201527f696e6720707269636500000000000000000000000000000000000000000000006064820152608401610a83565b6000858152601060209081526040808320338452909152812080543492906117ac90849061439d565b90915550600090506117c634670de0b6b3a764000061439d565b60048501819055600087815260126020526040812080546001600160a01b0319908116339081179092556011805460018101825593527f31ecc21a745e3968a04e9570e4425bc18fa8019c68028196b546d1669c200c6890920180549092161790559050611838600a80546001019055565b6000611843600a5490565b600986018190556040805160a081018252898152602080820184815233838501818152346060860190815260078d0154608087019081526000898152600e8752889020965187559351600187015590516002860180546001600160a01b0319166001600160a01b03909216919091179055516003850155905160049093019290925582518b8152908101879052929350917f0bda7f7cf42011b27b057b83f3bf21f963b84eb591478e6b413b18d7872cd37a910160405180910390a2509193505050506119106001600755565b919050565b6060600061192260085490565b905060008060005b838110156119855733600d600061194284600161439d565b81526020810191909152604001600020600101546001600160a01b031614156119735761197060018461439d565b92505b8061197d81614433565b91505061192a565b5060008267ffffffffffffffff8111156119af57634e487b7160e01b600052604160045260246000fd5b604051908082528060200260200182016040528015611a5357816020015b611a406040518061016001604052806000815260200160006001600160a01b0316815260200160006001600160a01b031681526020016000815260200160008152602001600015158152602001600015158152602001600081526020016000815260200160008152602001600081525090565b8152602001906001900390816119cd5790505b50905060005b84811015610d645733600d6000611a7184600161439d565b81526020810191909152604001600020600101546001600160a01b03161415611b85576000611aa182600161439d565b6000818152600d60209081526040918290208251610160810184528154815260018201546001600160a01b03908116938201939093526002820154909216928201929092526003820154606082015260048201546080820152600582015460ff808216151560a08401526101009182900416151560c0830152600683015460e08301526007830154908201526008820154610120820152600982015461014082015285519293509091859087908110611b6a57634e487b7160e01b600052603260045260246000fd5b6020908102919091010152611b8060018661439d565b945050505b80611b8f81614433565b915050611a59565b6000828152600d60205260408120600101546001600160a01b03163314611c005760405162461bcd60e51b815260206004820152601560248201527f596f7520617265206e6f7420746865204f776e657200000000000000000000006044820152606401610a83565b600f8054906000611c1083614433565b909155504290506000611c23848361439d565b6000868152600d6020908152604091829020600481018a905560058101805461ff0019166101001790556006810186905560070183905581518981529081018890529081018490526060810182905290915033907fb0c0552f858e630668cc4c58a1b7d1bd302efa77c15d8ec0f1fe725053c598019060800160405180910390a25092949350505050565b600c546001600160a01b03163314611d2e5760405162461bcd60e51b815260206004820152602560248201527f4f6e6c7920746865206f776e65722063616e2063616c6c20746869732066756e60448201527f6374696f6e0000000000000000000000000000000000000000000000000000006064820152608401610a83565b4780611d7c5760405162461bcd60e51b815260206004820152601860248201527f436f6e74726163742062616c616e6365206973205a45524f00000000000000006044820152606401610a83565b600c546040516001600160a01b039091169082156108fc029083906000818181858888f19350505050158015611586573d6000803e3d6000fd5b60606000611dc3600a5490565b905060008060005b83811015611e265733600e6000611de384600161439d565b81526020810191909152604001600020600201546001600160a01b03161415611e1457611e1160018461439d565b92505b80611e1e81614433565b915050611dcb565b5060008267ffffffffffffffff811115611e5057634e487b7160e01b600052604160045260246000fd5b604051908082528060200260200182016040528015611ebc57816020015b611ea96040518060a00160405280600081526020016000815260200160006001600160a01b0316815260200160008152602001600081525090565b815260200190600190039081611e6e5790505b50905060005b84811015610d645733600e6000611eda84600161439d565b81526020810191909152604001600020600201546001600160a01b03161415611f9f576000611f0a82600161439d565b6000818152600e6020908152604091829020825160a0810184528154815260018201549281019290925260028101546001600160a01b031692820192909252600382015460608201526004820154608082015285519293509091859087908110611f8457634e487b7160e01b600052603260045260246000fd5b6020908102919091010152611f9a60018661439d565b945050505b80611fa981614433565b915050611ec2565b6000818152600260205260408120546001600160a01b0316806109335760405162461bcd60e51b815260206004820152601860248201527f4552433732313a20696e76616c696420746f6b656e20494400000000000000006044820152606401610a83565b60006001600160a01b0382166120945760405162461bcd60e51b815260206004820152602960248201527f4552433732313a2061646472657373207a65726f206973206e6f74206120766160448201527f6c6964206f776e657200000000000000000000000000000000000000000000006064820152608401610a83565b506001600160a01b031660009081526003602052604090205490565b606060006120bd60085490565b905060008060005b838110156121595733600d60006120dd84600161439d565b81526020810191909152604001600020600101546001600160a01b03161480156121345750600d600061211183600161439d565b815260208101919091526040016000206005015460ff6101009091041615156001145b156121475761214460018461439d565b92505b8061215181614433565b9150506120c5565b5060008267ffffffffffffffff81111561218357634e487b7160e01b600052604160045260246000fd5b60405190808252806020026020018201604052801561222757816020015b6122146040518061016001604052806000815260200160006001600160a01b0316815260200160006001600160a01b031681526020016000815260200160008152602001600015158152602001600015158152602001600081526020016000815260200160008152602001600081525090565b8152602001906001900390816121a15790505b50905060005b84811015610d645733600d600061224584600161439d565b81526020810191909152604001600020600101546001600160a01b031614801561229c5750600d600061227983600161439d565b815260208101919091526040016000206005015460ff6101009091041615156001145b156123925760006122ae82600161439d565b6000818152600d60209081526040918290208251610160810184528154815260018201546001600160a01b03908116938201939093526002820154909216928201929092526003820154606082015260048201546080820152600582015460ff808216151560a08401526101009182900416151560c0830152600683015460e0830152600783015490820152600882015461012082015260098201546101408201528551929350909185908790811061237757634e487b7160e01b600052603260045260246000fd5b602090810291909101015261238d60018661439d565b945050505b8061239c81614433565b91505061222d565b606060018054610948906143f8565b6115863383836133df565b600c546001600160a01b0316331461243e5760405162461bcd60e51b815260206004820152602160248201527f4f6e6c79206f776e65722063616e2063616c6c20746869732066756e6374696f60448201527f6e000000000000000000000000000000000000000000000000000000000000006064820152608401610a83565b600b55565b61244d3383613361565b6124af5760405162461bcd60e51b815260206004820152602d60248201527f4552433732313a2063616c6c6572206973206e6f7420746f6b656e206f776e6560448201526c1c881bdc88185c1c1c9bdd9959609a1b6064820152608401610a83565b6124bb848484846134ae565b50505050565b6000818152600d60205260409020600301543481146125485760405162461bcd60e51b815260206004820152603260248201527f506c65617365207375626d6974207468652061736b696e67207072696365207460448201527f6f20707572636861736520746865204e465400000000000000000000000000006064820152608401610a83565b6000828152600d602052604081206002810180546001600160a01b0319163317905560058101805461ffff1916600117905560048101829055600681018290556007015561259a600980546001019055565b6125a5303384612fdc565b600c54600b546040516001600160a01b039092169181156108fc0291906000818181858888f193505050501580156125e1573d6000803e3d6000fd5b506000828152600d60205260408082206001015490516001600160a01b03909116913480156108fc02929091818181858888f1935050505015801561262a573d6000803e3d6000fd5b50506000908152600d6020526040902060010180546001600160a01b0319169055565b600061265d600880546001019055565b600061266860085490565b90506126743382613537565b61267e81866136d0565b612689818585613779565b949350505050565b6060600061269e60085490565b905060008060005b8381101561270457600d60006126bd83600161439d565b815260208101919091526040016000206005015460ff610100909104161515600114156126f2576126ef60018461439d565b92505b806126fc81614433565b9150506126a6565b5060008267ffffffffffffffff81111561272e57634e487b7160e01b600052604160045260246000fd5b6040519080825280602002602001820160405280156127d257816020015b6127bf6040518061016001604052806000815260200160006001600160a01b0316815260200160006001600160a01b031681526020016000815260200160008152602001600015158152602001600015158152602001600081526020016000815260200160008152602001600081525090565b81526020019060019003908161274c5790505b50905060005b84811015610d6457600d60006127ef83600161439d565b815260208101919091526040016000206005015460ff6101009091041615156001141561290757600061282382600161439d565b6000818152600d60209081526040918290208251610160810184528154815260018201546001600160a01b03908116938201939093526002820154909216928201929092526003820154606082015260048201546080820152600582015460ff808216151560a08401526101009182900416151560c0830152600683015460e083015260078301549082015260088201546101208201526009820154610140820152855192935090918590879081106128ec57634e487b7160e01b600052603260045260246000fd5b602090810291909101015261290260018661439d565b945050505b8061291181614433565b9150506127d8565b606061292482612eb0565b6000828152600660205260408120805461293d906143f8565b80601f0160208091040260200160405190810160405280929190818152602001828054612969906143f8565b80156129b65780601f1061298b576101008083540402835291602001916129b6565b820191906000526020600020905b81548152906001019060200180831161299957829003601f168201915b5050505050905060006129d460408051602081019091526000815290565b90508051600014156129e7575092915050565b815115612a19578082604051602001612a019291906141aa565b60405160208183030381529060405292505050919050565b612689846139df565b606060118054806020026020016040519081016040528092919081815260200182805480156109c157602002820191906000526020600020905b81546001600160a01b03168152600190910190602001808311612a5c575050505050905090565b60118181548110612a9357600080fd5b6000918252602090912001546001600160a01b0316905081565b60606000612aba600a5490565b905060008060005b83811015612b125785600e6000612ada84600161439d565b8152602001908152602001600020600001541415612b0057612afd60018461439d565b92505b80612b0a81614433565b915050612ac2565b5060008267ffffffffffffffff811115612b3c57634e487b7160e01b600052604160045260246000fd5b604051908082528060200260200182016040528015612ba857816020015b612b956040518060a00160405280600081526020016000815260200160006001600160a01b0316815260200160008152602001600081525090565b815260200190600190039081612b5a5790505b50905060005b84811015612c925786600e6000612bc684600161439d565b8152602001908152602001600020600001541415612c80576000612beb82600161439d565b6000818152600e6020908152604091829020825160a0810184528154815260018201549281019290925260028101546001600160a01b031692820192909252600382015460608201526004820154608082015285519293509091859087908110612c6557634e487b7160e01b600052603260045260246000fd5b6020908102919091010152612c7b60018661439d565b945050505b80612c8a81614433565b915050612bae565b5095945050505050565b6000818152600d602052604081206002810180546001600160a01b0319163317905560058101805461ffff191660011790556004810182905560068101829055600701819055612cf0600980546001019055565b612cfb303384612fdc565b600c54600b546040516001600160a01b039092169181156108fc0291906000818181858888f19350505050158015612d37573d6000803e3d6000fd5b50506000908152600d602052604090206001810180546001600160a01b0319169055600201546001600160a01b031690565b6000828152600d60205260409020600201546001600160a01b03163314612df85760405162461bcd60e51b815260206004820152602360248201527f4f6e6c79206974656d206f776e65722063616e20726573656c6c20746869732060448201527f6e667400000000000000000000000000000000000000000000000000000000006064820152608401610a83565b600b543414612e555760405162461bcd60e51b8152602060048201526024808201527f5072696365206d75737420626520657175616c20746f206c697374696e6720706044820152637269636560e01b6064820152608401610a83565b6000828152600d6020526040902060058101805460ff19169055600381018290556001810180546001600160a01b031990811633179091556002909101805490911630179055612ea560096131e2565b611586333084612fdc565b6000818152600260205260409020546001600160a01b03166112c55760405162461bcd60e51b815260206004820152601860248201527f4552433732313a20696e76616c696420746f6b656e20494400000000000000006044820152606401610a83565b600081815260046020526040902080546001600160a01b0319166001600160a01b0384169081179091558190612f4982611fb1565b6001600160a01b03167f8c5be1e5ebec7d5bd14f71427d1e84f3dd0314c0f7b2291e5b200ac8c7c3b92560405160405180910390a45050565b60026007541415612fd55760405162461bcd60e51b815260206004820152601f60248201527f5265656e7472616e637947756172643a207265656e7472616e742063616c6c006044820152606401610a83565b6002600755565b826001600160a01b0316612fef82611fb1565b6001600160a01b0316146130535760405162461bcd60e51b815260206004820152602560248201527f4552433732313a207472616e736665722066726f6d20696e636f72726563742060448201526437bbb732b960d91b6064820152608401610a83565b6001600160a01b0382166130ce5760405162461bcd60e51b8152602060048201526024808201527f4552433732313a207472616e7366657220746f20746865207a65726f2061646460448201527f72657373000000000000000000000000000000000000000000000000000000006064820152608401610a83565b6130db8383836001613a53565b826001600160a01b03166130ee82611fb1565b6001600160a01b0316146131525760405162461bcd60e51b815260206004820152602560248201527f4552433732313a207472616e736665722066726f6d20696e636f72726563742060448201526437bbb732b960d91b6064820152608401610a83565b600081815260046020908152604080832080546001600160a01b03199081169091556001600160a01b0387811680865260038552838620805460001901905590871680865283862080546001019055868652600290945282852080549092168417909155905184937fddf252ad1be2c89b69c2b068fc378daa952ba7f163c4a11628f55a4df523b3ef91a4505050565b8054806132315760405162461bcd60e51b815260206004820152601b60248201527f436f756e7465723a2064656372656d656e74206f766572666c6f7700000000006044820152606401610a83565b600019019055565b80613242575050565b6001600160a01b0382166132be5760405162461bcd60e51b815260206004820152602360248201527f4572726f722063616e6e6f74207472616e7366657220746f206164647265737360448201527f28302900000000000000000000000000000000000000000000000000000000006064820152608401610a83565b6000826001600160a01b03168260405160006040518083038185875af1925050503d806000811461330b576040519150601f19603f3d011682016040523d82523d6000602084013e613310565b606091505b5050905080610b245760405162461bcd60e51b815260206004820152601b60248201527f4572726f722c206661696c656420746f2073656e6420457468657200000000006044820152606401610a83565b60008061336d83611fb1565b9050806001600160a01b0316846001600160a01b031614806133b457506001600160a01b0380821660009081526005602090815260408083209388168352929052205460ff165b806126895750836001600160a01b03166133cd846109cb565b6001600160a01b031614949350505050565b816001600160a01b0316836001600160a01b031614156134415760405162461bcd60e51b815260206004820152601960248201527f4552433732313a20617070726f766520746f2063616c6c6572000000000000006044820152606401610a83565b6001600160a01b03838116600081815260056020908152604080832094871680845294825291829020805460ff191686151590811790915591519182527f17307eab39ab6107e8899845ad3d59bd9653f200f220920489ca2b5937696c31910160405180910390a3505050565b6134b9848484612fdc565b6134c584848484613adb565b6124bb5760405162461bcd60e51b815260206004820152603260248201527f4552433732313a207472616e7366657220746f206e6f6e20455243373231526560448201527f63656976657220696d706c656d656e74657200000000000000000000000000006064820152608401610a83565b6001600160a01b03821661358d5760405162461bcd60e51b815260206004820181905260248201527f4552433732313a206d696e7420746f20746865207a65726f20616464726573736044820152606401610a83565b6000818152600260205260409020546001600160a01b0316156135f25760405162461bcd60e51b815260206004820152601c60248201527f4552433732313a20746f6b656e20616c7265616479206d696e746564000000006044820152606401610a83565b613600600083836001613a53565b6000818152600260205260409020546001600160a01b0316156136655760405162461bcd60e51b815260206004820152601c60248201527f4552433732313a20746f6b656e20616c7265616479206d696e746564000000006044820152606401610a83565b6001600160a01b038216600081815260036020908152604080832080546001019055848352600290915280822080546001600160a01b0319168417905551839291907fddf252ad1be2c89b69c2b068fc378daa952ba7f163c4a11628f55a4df523b3ef908290a45050565b6000828152600260205260409020546001600160a01b031661375a5760405162461bcd60e51b815260206004820152602e60248201527f45524337323155524953746f726167653a2055524920736574206f66206e6f6e60448201527f6578697374656e7420746f6b656e0000000000000000000000000000000000006064820152608401610a83565b60008281526006602090815260409091208251610b2492840190613dd8565b600082116137c95760405162461bcd60e51b815260206004820152601c60248201527f5072696365206d757374206265206174206c65617374203120776569000000006044820152606401610a83565b600b5434146138265760405162461bcd60e51b8152602060048201526024808201527f5072696365206d75737420626520657175616c20746f206c697374696e6720706044820152637269636560e01b6064820152608401610a83565b604051806101600160405280848152602001336001600160a01b03168152602001306001600160a01b0316815260200183815260200183815260200160001515815260200160001515815260200160008152602001600081526020018281526020016000815250600d60008581526020019081526020016000206000820151816000015560208201518160010160006101000a8154816001600160a01b0302191690836001600160a01b0316021790555060408201518160020160006101000a8154816001600160a01b0302191690836001600160a01b03160217905550606082015181600301556080820151816004015560a08201518160050160006101000a81548160ff02191690831515021790555060c08201518160050160016101000a81548160ff02191690831515021790555060e08201518160060155610100820151816007015561012082015181600801556101408201518160090155905050613991333085612fdc565b604080513381523060208201529081018390526000606082015283907fb640004f1d14576d0c209e240cad0410e0d8c0c33a09375861fbadae2588a98d9060800160405180910390a2505050565b60606139ea82612eb0565b6000613a0160408051602081019091526000815290565b90506000815111613a215760405180602001604052806000815250613a4c565b80613a2b84613c3e565b604051602001613a3c9291906141aa565b6040516020818303038152906040525b9392505050565b60018111156124bb576001600160a01b03841615613a99576001600160a01b03841660009081526003602052604081208054839290613a939084906143b5565b90915550505b6001600160a01b038316156124bb576001600160a01b03831660009081526003602052604081208054839290613ad090849061439d565b909155505050505050565b60006001600160a01b0384163b15613c3357604051630a85bd0160e11b81526001600160a01b0385169063150b7a0290613b1f9033908990889088906004016141d9565b602060405180830381600087803b158015613b3957600080fd5b505af1925050508015613b69575060408051601f3d908101601f19168201909252613b669181019061407d565b60015b613c19573d808015613b97576040519150601f19603f3d011682016040523d82523d6000602084013e613b9c565b606091505b508051613c115760405162461bcd60e51b815260206004820152603260248201527f4552433732313a207472616e7366657220746f206e6f6e20455243373231526560448201527f63656976657220696d706c656d656e74657200000000000000000000000000006064820152608401610a83565b805181602001fd5b6001600160e01b031916630a85bd0160e11b149050612689565b506001949350505050565b60606000613c4b83613cf6565b600101905060008167ffffffffffffffff811115613c7957634e487b7160e01b600052604160045260246000fd5b6040519080825280601f01601f191660200182016040528015613ca3576020820181803683370190505b5090508181016020015b600019017f3031323334353637383961626364656600000000000000000000000000000000600a86061a8153600a8504945084613ce957613cee565b613cad565b509392505050565b6000807a184f03e93ff9f4daa797ed6e38ed64bf6a1f0100000000000000008310613d3f577a184f03e93ff9f4daa797ed6e38ed64bf6a1f010000000000000000830492506040015b6d04ee2d6d415b85acef81000000008310613d6b576d04ee2d6d415b85acef8100000000830492506020015b662386f26fc100008310613d8957662386f26fc10000830492506010015b6305f5e1008310613da1576305f5e100830492506008015b6127108310613db557612710830492506004015b60648310613dc7576064830492506002015b600a83106109335760010192915050565b828054613de4906143f8565b90600052602060002090601f016020900481019282613e065760008555613e4c565b82601f10613e1f57805160ff1916838001178555613e4c565b82800160010185558215613e4c579182015b82811115613e4c578251825591602001919060010190613e31565b50613e58929150613e5c565b5090565b5b80821115613e585760008155600101613e5d565b600067ffffffffffffffff80841115613e8c57613e8c614464565b604051601f8501601f19908116603f01168101908282118183101715613eb457613eb4614464565b81604052809350858152868686011115613ecd57600080fd5b858560208301376000602087830101525050509392505050565b80356001600160a01b038116811461191057600080fd5b600060208284031215613f0f578081fd5b613a4c82613ee7565b60008060408385031215613f2a578081fd5b613f3383613ee7565b9150613f4160208401613ee7565b90509250929050565b600080600060608486031215613f5e578081fd5b613f6784613ee7565b9250613f7560208501613ee7565b9150604084013590509250925092565b60008060008060808587031215613f9a578081fd5b613fa385613ee7565b9350613fb160208601613ee7565b925060408501359150606085013567ffffffffffffffff811115613fd3578182fd5b8501601f81018713613fe3578182fd5b613ff287823560208401613e71565b91505092959194509250565b60008060408385031215614010578182fd5b61401983613ee7565b91506020830135801515811461402d578182fd5b809150509250929050565b6000806040838503121561404a578182fd5b61405383613ee7565b946020939093013593505050565b600060208284031215614072578081fd5b8135613a4c8161447a565b60006020828403121561408e578081fd5b8151613a4c8161447a565b6000806000606084860312156140ad578283fd5b833567ffffffffffffffff8111156140c3578384fd5b8401601f810186136140d3578384fd5b6140e286823560208401613e71565b9660208601359650604090950135949350505050565b600060208284031215614109578081fd5b5035919050565b60008060408385031215614122578182fd5b82359150613f4160208401613ee7565b60008060408385031215614144578182fd5b50508035926020909101359150565b600080600060608486031215614167578283fd5b505081359360208301359350604090920135919050565b600081518084526141968160208601602086016143cc565b601f01601f19169290920160200192915050565b600083516141bc8184602088016143cc565b8351908301906141d08183602088016143cc565b01949350505050565b60006001600160a01b0380871683528086166020840152508360408301526080606083015261420b608083018461417e565b9695505050505050565b6020808252825182820181905260009190848201906040850190845b818110156142565783516001600160a01b031683529284019291840191600101614231565b50909695505050505050565b602080825282518282018190526000919060409081850190868401855b8281101561431357815180518552868101516001600160a01b0390811688870152868201511686860152606080820151908601526080808201519086015260a08082015115159086015260c08082015115159086015260e08082015190860152610100808201519086015261012080820151908601526101409081015190850152610160909301929085019060010161427f565b5091979650505050505050565b602080825282518282018190526000919060409081850190868401855b82811015614313578151805185528681015187860152858101516001600160a01b031686860152606080820151908601526080908101519085015260a0909301929085019060010161433d565b602081526000613a4c602083018461417e565b600082198211156143b0576143b061444e565b500190565b6000828210156143c7576143c761444e565b500390565b60005b838110156143e75781810151838201526020016143cf565b838111156124bb5750506000910152565b600181811c9082168061440c57607f821691505b6020821081141561442d57634e487b7160e01b600052602260045260246000fd5b50919050565b60006000198214156144475761444761444e565b5060010190565b634e487b7160e01b600052601160045260246000fd5b634e487b7160e01b600052604160045260246000fd5b6001600160e01b0319811681146112c557600080fdfea2646970667358221220c988e5e98590b4c68729159291fad30600dcdac28f53d6d94f45615080ad834c64736f6c63430008040033",
  "linkReferences": {},
  "deployedLinkReferences": {}
}