{
  "_format": "hh-sol-artifact-1",
  "contractName": "Support",
  "sourceName": "contracts/Support.sol",
  "abi": [
    {
      "inputs": [],
      "name": "getMessageHistory",
      "outputs": [
        {
          "components": [
            {
              "internalType": "address",
              "name": "from",
              "type": "address"
            },
            {
              "internalType": "uint256",
              "name": "timestamp",
              "type": "uint256"
            },
            {
              "internalType": "string",
              "name": "name",
              "type": "string"
            },
            {
              "internalType": "string",
              "name": "message",
              "type": "string"
            },
            {
              "internalType": "string",
              "name": "title",
              "type": "string"
            }
          ],
          "internalType": "struct Support.userMessage[]",
          "name": "",
          "type": "tuple[]"
        }
      ],
      "stateMutability": "view",
      "type": "function"
    },
    {
      "inputs": [],
      "name": "getUserMessageHistory",
      "outputs": [
        {
          "components": [
            {
              "internalType": "address",
              "name": "from",
              "type": "address"
            },
            {
              "internalType": "uint256",
              "name": "timestamp",
              "type": "uint256"
            },
            {
              "internalType": "string",
              "name": "name",
              "type": "string"
            },
            {
              "internalType": "string",
              "name": "message",
              "type": "string"
            },
            {
              "internalType": "string",
              "name": "title",
              "type": "string"
            }
          ],
          "internalType": "struct Support.userMessage[]",
          "name": "",
          "type": "tuple[]"
        }
      ],
      "stateMutability": "view",
      "type": "function"
    },
    {
      "inputs": [
        {
          "internalType": "string",
          "name": "_name",
          "type": "string"
        },
        {
          "internalType": "string",
          "name": "_message",
          "type": "string"
        },
        {
          "internalType": "string",
          "name": "_title",
          "type": "string"
        }
      ],
      "name": "sendMessage",
      "outputs": [],
      "stateMutability": "payable",
      "type": "function"
    },
    {
      "inputs": [
        {
          "internalType": "uint256",
          "name": "",
          "type": "uint256"
        }
      ],
      "name": "userHistory",
      "outputs": [
        {
          "internalType": "address",
          "name": "from",
          "type": "address"
        },
        {
          "internalType": "uint256",
          "name": "timestamp",
          "type": "uint256"
        },
        {
          "internalType": "string",
          "name": "name",
          "type": "string"
        },
        {
          "internalType": "string",
          "name": "message",
          "type": "string"
        },
        {
          "internalType": "string",
          "name": "title",
          "type": "string"
        }
      ],
      "stateMutability": "view",
      "type": "function"
    },
    {
      "inputs": [
        {
          "internalType": "address",
          "name": "",
          "type": "address"
        },
        {
          "internalType": "uint256",
          "name": "",
          "type": "uint256"
        }
      ],
      "name": "userMessageHistory",
      "outputs": [
        {
          "internalType": "address",
          "name": "from",
          "type": "address"
        },
        {
          "internalType": "uint256",
          "name": "timestamp",
          "type": "uint256"
        },
        {
          "internalType": "string",
          "name": "name",
          "type": "string"
        },
        {
          "internalType": "string",
          "name": "message",
          "type": "string"
        },
        {
          "internalType": "string",
          "name": "title",
          "type": "string"
        }
      ],
      "stateMutability": "view",
      "type": "function"
    }
  ],
  "bytecode": "0x608060405234801561001057600080fd5b50610d87806100206000396000f3fe60806040526004361061005a5760003560e01c806375abf6851161004357806375abf6851461009f5780637d24abcc146100b4578063ba094811146100e557600080fd5b80630eabeffe1461005f5780631f7dbed314610074575b600080fd5b61007261006d366004610b00565b610105565b005b34801561008057600080fd5b50610089610306565b6040516100969190610c41565b60405180910390f35b3480156100ab57600080fd5b50610089610546565b3480156100c057600080fd5b506100d46100cf366004610aca565b610772565b604051610096959493929190610be7565b3480156100f157600080fd5b506100d4610100366004610b84565b610964565b6040805160a081018252338152426020808301918252928201868152606083018690526080830185905260008054600181018255908052835160059091027f290decd9548b62a8d60345a988386fc84ba6bc95484008f6362f93160ef3e563810180546001600160a01b039390931673ffffffffffffffffffffffffffffffffffffffff1990931692909217825592517f290decd9548b62a8d60345a988386fc84ba6bc95484008f6362f93160ef3e56484015590518051939491936101f2937f290decd9548b62a8d60345a988386fc84ba6bc95484008f6362f93160ef3e565019291909101906109aa565b506060820151805161020e9160038401916020909101906109aa565b506080820151805161022a9160048401916020909101906109aa565b5050336000818152600160208181526040808420815160a081018352958652428684019081529186018a8152606087018a90526080870189905281548086018355918652948390208651600590920201805473ffffffffffffffffffffffffffffffffffffffff19166001600160a01b039092169190911781559051928101929092559151805193945090926102c692600285019201906109aa565b50606082015180516102e29160038401916020909101906109aa565b50608082015180516102fe9160048401916020909101906109aa565b505050505050565b336000908152600160209081526040808320805482518185028101850190935280835260609492939192909184015b8282101561053d5760008481526020908190206040805160a0810182526005860290920180546001600160a01b031683526001810154938301939093526002830180549293929184019161038890610d00565b80601f01602080910402602001604051908101604052809291908181526020018280546103b490610d00565b80156104015780601f106103d657610100808354040283529160200191610401565b820191906000526020600020905b8154815290600101906020018083116103e457829003601f168201915b5050505050815260200160038201805461041a90610d00565b80601f016020809104026020016040519081016040528092919081815260200182805461044690610d00565b80156104935780601f1061046857610100808354040283529160200191610493565b820191906000526020600020905b81548152906001019060200180831161047657829003601f168201915b505050505081526020016004820180546104ac90610d00565b80601f01602080910402602001604051908101604052809291908181526020018280546104d890610d00565b80156105255780601f106104fa57610100808354040283529160200191610525565b820191906000526020600020905b81548152906001019060200180831161050857829003601f168201915b50505050508152505081526020019060010190610335565b50505050905090565b60606000805480602002602001604051908101604052809291908181526020016000905b8282101561053d5760008481526020908190206040805160a0810182526005860290920180546001600160a01b03168352600181015493830193909352600283018054929392918401916105bd90610d00565b80601f01602080910402602001604051908101604052809291908181526020018280546105e990610d00565b80156106365780601f1061060b57610100808354040283529160200191610636565b820191906000526020600020905b81548152906001019060200180831161061957829003601f168201915b5050505050815260200160038201805461064f90610d00565b80601f016020809104026020016040519081016040528092919081815260200182805461067b90610d00565b80156106c85780601f1061069d576101008083540402835291602001916106c8565b820191906000526020600020905b8154815290600101906020018083116106ab57829003601f168201915b505050505081526020016004820180546106e190610d00565b80601f016020809104026020016040519081016040528092919081815260200182805461070d90610d00565b801561075a5780601f1061072f5761010080835404028352916020019161075a565b820191906000526020600020905b81548152906001019060200180831161073d57829003601f168201915b5050505050815250508152602001906001019061056a565b6001602052816000526040600020818154811061078e57600080fd5b60009182526020909120600590910201805460018201546002830180546001600160a01b039093169550909350906107c590610d00565b80601f01602080910402602001604051908101604052809291908181526020018280546107f190610d00565b801561083e5780601f106108135761010080835404028352916020019161083e565b820191906000526020600020905b81548152906001019060200180831161082157829003601f168201915b50505050509080600301805461085390610d00565b80601f016020809104026020016040519081016040528092919081815260200182805461087f90610d00565b80156108cc5780601f106108a1576101008083540402835291602001916108cc565b820191906000526020600020905b8154815290600101906020018083116108af57829003601f168201915b5050505050908060040180546108e190610d00565b80601f016020809104026020016040519081016040528092919081815260200182805461090d90610d00565b801561095a5780601f1061092f5761010080835404028352916020019161095a565b820191906000526020600020905b81548152906001019060200180831161093d57829003601f168201915b5050505050905085565b6000818154811061097457600080fd5b60009182526020909120600590910201805460018201546002830180546001600160a01b0390931694509092916107c590610d00565b8280546109b690610d00565b90600052602060002090601f0160209004810192826109d85760008555610a1e565b82601f106109f157805160ff1916838001178555610a1e565b82800160010185558215610a1e579182015b82811115610a1e578251825591602001919060010190610a03565b50610a2a929150610a2e565b5090565b5b80821115610a2a5760008155600101610a2f565b600082601f830112610a53578081fd5b813567ffffffffffffffff80821115610a6e57610a6e610d3b565b604051601f8301601f19908116603f01168101908282118183101715610a9657610a96610d3b565b81604052838152866020858801011115610aae578485fd5b8360208701602083013792830160200193909352509392505050565b60008060408385031215610adc578182fd5b82356001600160a01b0381168114610af2578283fd5b946020939093013593505050565b600080600060608486031215610b14578081fd5b833567ffffffffffffffff80821115610b2b578283fd5b610b3787838801610a43565b94506020860135915080821115610b4c578283fd5b610b5887838801610a43565b93506040860135915080821115610b6d578283fd5b50610b7a86828701610a43565b9150509250925092565b600060208284031215610b95578081fd5b5035919050565b60008151808452815b81811015610bc157602081850181015186830182015201610ba5565b81811115610bd25782602083870101525b50601f01601f19169290920160200192915050565b6001600160a01b038616815284602082015260a060408201526000610c0f60a0830186610b9c565b8281036060840152610c218186610b9c565b90508281036080840152610c358185610b9c565b98975050505050505050565b60006020808301818452808551808352604092508286019150828160051b870101848801865b83811015610cf257603f19898403018552815160a06001600160a01b0382511685528882015189860152878201518189870152610ca682870182610b9c565b91505060608083015186830382880152610cc08382610b9c565b9250505060808083015192508582038187015250610cde8183610b9c565b968901969450505090860190600101610c67565b509098975050505050505050565b600181811c90821680610d1457607f821691505b60208210811415610d3557634e487b7160e01b600052602260045260246000fd5b50919050565b634e487b7160e01b600052604160045260246000fdfea2646970667358221220608b92d417914312f97b3e1f7ad757437652216d0b7ad11468ab1d6e3407224464736f6c63430008040033",
  "linkReferences": {},
  "deployedLinkReferences": {}
}