{
  "_format": "hh-sol-artifact-1",
  "contractName": "TheBlockchainCoders",
  "sourceName": "contracts/TheBlockchainCoders.sol",
  "abi": [
    {
      "inputs": [
        {
          "internalType": "uint256",
          "name": "_initialSupply",
          "type": "uint256"
        }
      ],
      "stateMutability": "nonpayable",
      "type": "constructor"
    },
    {
      "anonymous": false,
      "inputs": [
        {
          "indexed": true,
          "internalType": "address",
          "name": "_from",
          "type": "address"
        },
        {
          "indexed": true,
          "internalType": "address",
          "name": "_to",
          "type": "address"
        },
        {
          "indexed": false,
          "internalType": "uint256",
          "name": "_value",
          "type": "uint256"
        }
      ],
      "name": "Approval",
      "type": "event"
    },
    {
      "anonymous": false,
      "inputs": [
        {
          "indexed": true,
          "internalType": "address",
          "name": "_from",
          "type": "address"
        },
        {
          "indexed": true,
          "internalType": "address",
          "name": "_to",
          "type": "address"
        },
        {
          "indexed": false,
          "internalType": "uint256",
          "name": "_value",
          "type": "uint256"
        }
      ],
      "name": "Transfer",
      "type": "event"
    },
    {
      "inputs": [],
      "name": "_userId",
      "outputs": [
        {
          "internalType": "uint256",
          "name": "",
          "type": "uint256"
        }
      ],
      "stateMutability": "view",
      "type": "function"
    },
    {
      "inputs": [
        {
          "internalType": "address",
          "name": "",
          "type": "address"
        },
        {
          "internalType": "address",
          "name": "",
          "type": "address"
        }
      ],
      "name": "allowance",
      "outputs": [
        {
          "internalType": "uint256",
          "name": "",
          "type": "uint256"
        }
      ],
      "stateMutability": "view",
      "type": "function"
    },
    {
      "inputs": [
        {
          "internalType": "address",
          "name": "_spender",
          "type": "address"
        },
        {
          "internalType": "uint256",
          "name": "_value",
          "type": "uint256"
        }
      ],
      "name": "approve",
      "outputs": [
        {
          "internalType": "bool",
          "name": "success",
          "type": "bool"
        }
      ],
      "stateMutability": "nonpayable",
      "type": "function"
    },
    {
      "inputs": [
        {
          "internalType": "address",
          "name": "",
          "type": "address"
        }
      ],
      "name": "balanceOf",
      "outputs": [
        {
          "internalType": "uint256",
          "name": "",
          "type": "uint256"
        }
      ],
      "stateMutability": "view",
      "type": "function"
    },
    {
      "inputs": [],
      "name": "getTokenHolder",
      "outputs": [
        {
          "internalType": "address[]",
          "name": "",
          "type": "address[]"
        }
      ],
      "stateMutability": "view",
      "type": "function"
    },
    {
      "inputs": [
        {
          "internalType": "address",
          "name": "_address",
          "type": "address"
        }
      ],
      "name": "getTokenHolderData",
      "outputs": [
        {
          "internalType": "uint256",
          "name": "",
          "type": "uint256"
        },
        {
          "internalType": "address",
          "name": "",
          "type": "address"
        },
        {
          "internalType": "address",
          "name": "",
          "type": "address"
        },
        {
          "internalType": "uint256",
          "name": "",
          "type": "uint256"
        },
        {
          "internalType": "bool",
          "name": "",
          "type": "bool"
        }
      ],
      "stateMutability": "view",
      "type": "function"
    },
    {
      "inputs": [
        {
          "internalType": "uint256",
          "name": "",
          "type": "uint256"
        }
      ],
      "name": "holderToken",
      "outputs": [
        {
          "internalType": "address",
          "name": "",
          "type": "address"
        }
      ],
      "stateMutability": "view",
      "type": "function"
    },
    {
      "inputs": [],
      "name": "name",
      "outputs": [
        {
          "internalType": "string",
          "name": "",
          "type": "string"
        }
      ],
      "stateMutability": "view",
      "type": "function"
    },
    {
      "inputs": [],
      "name": "ownerOfContract",
      "outputs": [
        {
          "internalType": "address",
          "name": "",
          "type": "address"
        }
      ],
      "stateMutability": "view",
      "type": "function"
    },
    {
      "inputs": [],
      "name": "standard",
      "outputs": [
        {
          "internalType": "string",
          "name": "",
          "type": "string"
        }
      ],
      "stateMutability": "view",
      "type": "function"
    },
    {
      "inputs": [],
      "name": "symbol",
      "outputs": [
        {
          "internalType": "string",
          "name": "",
          "type": "string"
        }
      ],
      "stateMutability": "view",
      "type": "function"
    },
    {
      "inputs": [
        {
          "internalType": "address",
          "name": "",
          "type": "address"
        }
      ],
      "name": "tokenHolderInfos",
      "outputs": [
        {
          "internalType": "uint256",
          "name": "_tokenId",
          "type": "uint256"
        },
        {
          "internalType": "address",
          "name": "_from",
          "type": "address"
        },
        {
          "internalType": "address",
          "name": "_to",
          "type": "address"
        },
        {
          "internalType": "uint256",
          "name": "_totalToken",
          "type": "uint256"
        },
        {
          "internalType": "bool",
          "name": "_tokenHolder",
          "type": "bool"
        }
      ],
      "stateMutability": "view",
      "type": "function"
    },
    {
      "inputs": [],
      "name": "totalSupply",
      "outputs": [
        {
          "internalType": "uint256",
          "name": "",
          "type": "uint256"
        }
      ],
      "stateMutability": "view",
      "type": "function"
    },
    {
      "inputs": [
        {
          "internalType": "address",
          "name": "_to",
          "type": "address"
        },
        {
          "internalType": "uint256",
          "name": "_value",
          "type": "uint256"
        }
      ],
      "name": "transfer",
      "outputs": [
        {
          "internalType": "bool",
          "name": "success",
          "type": "bool"
        }
      ],
      "stateMutability": "nonpayable",
      "type": "function"
    },
    {
      "inputs": [
        {
          "internalType": "address",
          "name": "_from",
          "type": "address"
        },
        {
          "internalType": "address",
          "name": "_to",
          "type": "address"
        },
        {
          "internalType": "uint256",
          "name": "_value",
          "type": "uint256"
        }
      ],
      "name": "transferForm",
      "outputs": [
        {
          "internalType": "bool",
          "name": "success",
          "type": "bool"
        }
      ],
      "stateMutability": "nonpayable",
      "type": "function"
    }
  ],
  "bytecode": "0x60c0604052601560808190527f54686520426c6f636b636861696e20436f64657273000000000000000000000060a090815261003e916000919061010a565b506040805180820190915260038082526254424360e81b60209092019182526100699160019161010a565b5060408051808201909152601a8082527f40746865626c6f636b636861696e636f6465727320762e302e3100000000000060209092019182526100ae9160029161010a565b503480156100bb57600080fd5b5060405162000bb538038062000bb58339810160408190526100dc916101a3565b600480546001600160a01b0319163390811790915560009081526008602052604090208190556003556101f6565b828054610116906101bb565b90600052602060002090601f016020900481019282610138576000855561017e565b82601f1061015157805160ff191683800117855561017e565b8280016001018555821561017e579182015b8281111561017e578251825591602001919060010190610163565b5061018a92915061018e565b5090565b5b8082111561018a576000815560010161018f565b6000602082840312156101b4578081fd5b5051919050565b600181811c908216806101cf57607f821691505b602082108114156101f057634e487b7160e01b600052602260045260246000fd5b50919050565b6109af80620002066000396000f3fe608060405234801561001057600080fd5b50600436106100f55760003560e01c806370a0823111610097578063a9059cbb11610066578063a9059cbb146102a2578063ba8e3557146102b5578063bc4530e7146102ca578063dd62ed3e146102d357600080fd5b806370a082311461021a578063760b06c51461023a57806382b682631461024d57806395d89b411461029a57600080fd5b806329cc66ed116100d357806329cc66ed146101525780633112ae5b146101d4578063468229ae146101e75780635a3b7e421461021257600080fd5b806306fdde03146100fa578063095ea7b31461011857806318160ddd1461013b575b600080fd5b6101026102fe565b60405161010f919061088b565b60405180910390f35b61012b6101263660046107fd565b61038c565b604051901515815260200161010f565b61014460035481565b60405190815260200161010f565b61019e61016036600461076f565b6007602052600090815260409020805460018201546002830154600384015460049094015492936001600160a01b0392831693929091169160ff1685565b604080519586526001600160a01b039485166020870152929093169184019190915260608301521515608082015260a00161010f565b61012b6101e23660046107c2565b6103f8565b6004546101fa906001600160a01b031681565b6040516001600160a01b03909116815260200161010f565b610102610538565b61014461022836600461076f565b60086020526000908152604090205481565b6101fa610248366004610826565b610545565b61019e61025b36600461076f565b6001600160a01b039081166000908152600760205260409020805460028201546001830154600384015460049094015492959185169416929160ff1690565b61010261056f565b61012b6102b03660046107fd565b61057c565b6102bd6106da565b60405161010f919061083e565b61014460055481565b6101446102e1366004610790565b600960209081526000928352604080842090915290825290205481565b6000805461030b9061090d565b80601f01602080910402602001604051908101604052809291908181526020018280546103379061090d565b80156103845780601f1061035957610100808354040283529160200191610384565b820191906000526020600020905b81548152906001019060200180831161036757829003601f168201915b505050505081565b3360008181526009602090815260408083206001600160a01b038716808552925280832085905551919290917f8c5be1e5ebec7d5bd14f71427d1e84f3dd0314c0f7b2291e5b200ac8c7c3b925906103e79086815260200190565b60405180910390a350600192915050565b6001600160a01b03831660009081526008602052604081205482111561041d57600080fd5b6001600160a01b038416600090815260096020908152604080832033845290915290205482111561044d57600080fd5b6001600160a01b038416600090815260086020526040812080548492906104759084906108f6565b90915550506001600160a01b038316600090815260086020526040812080548492906104a29084906108de565b90915550506001600160a01b0384166000908152600960209081526040808320338452909152812080548492906104da9084906108f6565b92505081905550826001600160a01b0316846001600160a01b03167fddf252ad1be2c89b69c2b068fc378daa952ba7f163c4a11628f55a4df523b3ef8460405161052691815260200190565b60405180910390a35060019392505050565b6002805461030b9061090d565b6006818154811061055557600080fd5b6000918252602090912001546001600160a01b0316905081565b6001805461030b9061090d565b3360009081526008602052604081205482111561059857600080fd5b6105a061073c565b33600090815260086020526040812080548492906105bf9084906108f6565b90915550506001600160a01b038316600090815260086020526040812080548492906105ec9084906108de565b90915550506001600160a01b03831660008181526007602090815260408083206002810180547fffffffffffffffffffffffff0000000000000000000000000000000000000000908116871790915560018083018054339084168117909155600384018a905560048401805460ff19168317905560055484556006805492830181559096527ff652222313e28459528d920b65115c16c04f3efc82aaedc97be59f3f377c0d3f018054909116861790559051868152909392917fddf252ad1be2c89b69c2b068fc378daa952ba7f163c4a11628f55a4df523b3ef910160405180910390a35060019392505050565b6060600680548060200260200160405190810160405280929190818152602001828054801561073257602002820191906000526020600020905b81546001600160a01b03168152600190910190602001808311610714575b5050505050905090565b6005805490600061074c83610948565b9190505550565b80356001600160a01b038116811461076a57600080fd5b919050565b600060208284031215610780578081fd5b61078982610753565b9392505050565b600080604083850312156107a2578081fd5b6107ab83610753565b91506107b960208401610753565b90509250929050565b6000806000606084860312156107d6578081fd5b6107df84610753565b92506107ed60208501610753565b9150604084013590509250925092565b6000806040838503121561080f578182fd5b61081883610753565b946020939093013593505050565b600060208284031215610837578081fd5b5035919050565b6020808252825182820181905260009190848201906040850190845b8181101561087f5783516001600160a01b03168352928401929184019160010161085a565b50909695505050505050565b6000602080835283518082850152825b818110156108b75785810183015185820160400152820161089b565b818111156108c85783604083870101525b50601f01601f1916929092016040019392505050565b600082198211156108f1576108f1610963565b500190565b60008282101561090857610908610963565b500390565b600181811c9082168061092157607f821691505b6020821081141561094257634e487b7160e01b600052602260045260246000fd5b50919050565b600060001982141561095c5761095c610963565b5060010190565b634e487b7160e01b600052601160045260246000fdfea26469706673582212202f27f463c662a748d9db2e6c6b22b4a7008177ea23513c3f5c49660cd6aa30b564736f6c63430008040033",
  "linkReferences": {},
  "deployedLinkReferences": {}
}