{
  "_format": "hh-sol-artifact-1",
  "contractName": "TransferFunds",
  "sourceName": "contracts/TransferFunds.sol",
  "abi": [
    {
      "inputs": [],
      "name": "getTransferHistory",
      "outputs": [
        {
          "components": [
            {
              "internalType": "address",
              "name": "from",
              "type": "address"
            },
            {
              "internalType": "address",
              "name": "to",
              "type": "address"
            },
            {
              "internalType": "uint256",
              "name": "amount",
              "type": "uint256"
            },
            {
              "internalType": "uint256",
              "name": "timestamp",
              "type": "uint256"
            },
            {
              "internalType": "string",
              "name": "name",
              "type": "string"
            },
            {
              "internalType": "string",
              "name": "description",
              "type": "string"
            }
          ],
          "internalType": "struct TransferFunds.userTransfer[]",
          "name": "",
          "type": "tuple[]"
        }
      ],
      "stateMutability": "view",
      "type": "function"
    },
    {
      "inputs": [],
      "name": "getUserTransferHistory",
      "outputs": [
        {
          "components": [
            {
              "internalType": "address",
              "name": "from",
              "type": "address"
            },
            {
              "internalType": "address",
              "name": "to",
              "type": "address"
            },
            {
              "internalType": "uint256",
              "name": "amount",
              "type": "uint256"
            },
            {
              "internalType": "uint256",
              "name": "timestamp",
              "type": "uint256"
            },
            {
              "internalType": "string",
              "name": "name",
              "type": "string"
            },
            {
              "internalType": "string",
              "name": "description",
              "type": "string"
            }
          ],
          "internalType": "struct TransferFunds.userTransfer[]",
          "name": "",
          "type": "tuple[]"
        }
      ],
      "stateMutability": "view",
      "type": "function"
    },
    {
      "inputs": [
        {
          "internalType": "address payable",
          "name": "recipient",
          "type": "address"
        },
        {
          "internalType": "string",
          "name": "_name",
          "type": "string"
        },
        {
          "internalType": "string",
          "name": "_description",
          "type": "string"
        },
        {
          "internalType": "uint256",
          "name": "_amount",
          "type": "uint256"
        }
      ],
      "name": "transfer",
      "outputs": [],
      "stateMutability": "payable",
      "type": "function"
    },
    {
      "inputs": [
        {
          "internalType": "uint256",
          "name": "",
          "type": "uint256"
        }
      ],
      "name": "transferHistory",
      "outputs": [
        {
          "internalType": "address",
          "name": "from",
          "type": "address"
        },
        {
          "internalType": "address",
          "name": "to",
          "type": "address"
        },
        {
          "internalType": "uint256",
          "name": "amount",
          "type": "uint256"
        },
        {
          "internalType": "uint256",
          "name": "timestamp",
          "type": "uint256"
        },
        {
          "internalType": "string",
          "name": "name",
          "type": "string"
        },
        {
          "internalType": "string",
          "name": "description",
          "type": "string"
        }
      ],
      "stateMutability": "view",
      "type": "function"
    },
    {
      "inputs": [
        {
          "internalType": "address",
          "name": "",
          "type": "address"
        },
        {
          "internalType": "uint256",
          "name": "",
          "type": "uint256"
        }
      ],
      "name": "userTransferHistory",
      "outputs": [
        {
          "internalType": "address",
          "name": "from",
          "type": "address"
        },
        {
          "internalType": "address",
          "name": "to",
          "type": "address"
        },
        {
          "internalType": "uint256",
          "name": "amount",
          "type": "uint256"
        },
        {
          "internalType": "uint256",
          "name": "timestamp",
          "type": "uint256"
        },
        {
          "internalType": "string",
          "name": "name",
          "type": "string"
        },
        {
          "internalType": "string",
          "name": "description",
          "type": "string"
        }
      ],
      "stateMutability": "view",
      "type": "function"
    }
  ],
  "bytecode": "0x608060405234801561001057600080fd5b50610c72806100206000396000f3fe60806040526004361061005a5760003560e01c80639e34823c116100435780639e34823c146100af578063a8473dbc146100cf578063ee0671ae146100f157600080fd5b806341b385691461005f578063816c99de14610074575b600080fd5b61007261006d3660046109b5565b610106565b005b34801561008057600080fd5b5061009461008f366004610a5b565b610351565b6040516100a696959493929190610abe565b60405180910390f35b3480156100bb57600080fd5b506100946100ca366004610a30565b6104b8565b3480156100db57600080fd5b506100e461051d565b6040516100a69190610b15565b3480156100fd57600080fd5b506100e46106e3565b6040805160c0810182523381526001600160a01b03868116602080840191825293830185815242606085019081526080850189815260a0860189905260008054600181018255908052865160069091027f290decd9548b62a8d60345a988386fc84ba6bc95484008f6362f93160ef3e5638101805492881673ffffffffffffffffffffffffffffffffffffffff1993841617815595517f290decd9548b62a8d60345a988386fc84ba6bc95484008f6362f93160ef3e564820180549190981692169190911790955591517f290decd9548b62a8d60345a988386fc84ba6bc95484008f6362f93160ef3e565850155517f290decd9548b62a8d60345a988386fc84ba6bc95484008f6362f93160ef3e56684015551805193949193610251937f290decd9548b62a8d60345a988386fc84ba6bc95484008f6362f93160ef3e56701929190910190610895565b5060a0820151805161026d916005840191602090910190610895565b5050336000818152600160208181526040808420815160c0810183529586526001600160a01b038b81168785019081529287018981524260608901908152608089018d815260a08a018d905284548089018655948952978690208951600690950201805494841673ffffffffffffffffffffffffffffffffffffffff19958616178155945196850180549790931696909316959095179055925160028201559151600383015591518051939450909261032c9260048501920190610895565b5060a08201518051610348916005840191602090910190610895565b50505050505050565b6000818154811061036157600080fd5b6000918252602090912060069091020180546001820154600283015460038401546004850180546001600160a01b0395861697509390941694919390926103a790610bd3565b80601f01602080910402602001604051908101604052809291908181526020018280546103d390610bd3565b80156104205780601f106103f557610100808354040283529160200191610420565b820191906000526020600020905b81548152906001019060200180831161040357829003601f168201915b50505050509080600501805461043590610bd3565b80601f016020809104026020016040519081016040528092919081815260200182805461046190610bd3565b80156104ae5780601f10610483576101008083540402835291602001916104ae565b820191906000526020600020905b81548152906001019060200180831161049157829003601f168201915b5050505050905086565b600160205281600052604060002081815481106104d457600080fd5b6000918252602090912060069091020180546001820154600283015460038401546004850180546001600160a01b0395861698509390941695509093909290916103a790610bd3565b336000908152600160209081526040808320805482518185028101850190935280835260609492939192909184015b828210156106da5760008481526020908190206040805160c0810182526006860290920180546001600160a01b03908116845260018201541693830193909352600283015490820152600382015460608201526004820180549192916080840191906105b790610bd3565b80601f01602080910402602001604051908101604052809291908181526020018280546105e390610bd3565b80156106305780601f1061060557610100808354040283529160200191610630565b820191906000526020600020905b81548152906001019060200180831161061357829003601f168201915b5050505050815260200160058201805461064990610bd3565b80601f016020809104026020016040519081016040528092919081815260200182805461067590610bd3565b80156106c25780601f10610697576101008083540402835291602001916106c2565b820191906000526020600020905b8154815290600101906020018083116106a557829003601f168201915b5050505050815250508152602001906001019061054c565b50505050905090565b60606000805480602002602001604051908101604052809291908181526020016000905b828210156106da5760008481526020908190206040805160c0810182526006860290920180546001600160a01b039081168452600182015416938301939093526002830154908201526003820154606082015260048201805491929160808401919061077290610bd3565b80601f016020809104026020016040519081016040528092919081815260200182805461079e90610bd3565b80156107eb5780601f106107c0576101008083540402835291602001916107eb565b820191906000526020600020905b8154815290600101906020018083116107ce57829003601f168201915b5050505050815260200160058201805461080490610bd3565b80601f016020809104026020016040519081016040528092919081815260200182805461083090610bd3565b801561087d5780601f106108525761010080835404028352916020019161087d565b820191906000526020600020905b81548152906001019060200180831161086057829003601f168201915b50505050508152505081526020019060010190610707565b8280546108a190610bd3565b90600052602060002090601f0160209004810192826108c35760008555610909565b82601f106108dc57805160ff1916838001178555610909565b82800160010185558215610909579182015b828111156109095782518255916020019190600101906108ee565b50610915929150610919565b5090565b5b80821115610915576000815560010161091a565b600082601f83011261093e578081fd5b813567ffffffffffffffff8082111561095957610959610c0e565b604051601f8301601f19908116603f0116810190828211818310171561098157610981610c0e565b81604052838152866020858801011115610999578485fd5b8360208701602083013792830160200193909352509392505050565b600080600080608085870312156109ca578384fd5b84356109d581610c24565b9350602085013567ffffffffffffffff808211156109f1578485fd5b6109fd8883890161092e565b94506040870135915080821115610a12578384fd5b50610a1f8782880161092e565b949793965093946060013593505050565b60008060408385031215610a42578182fd5b8235610a4d81610c24565b946020939093013593505050565b600060208284031215610a6c578081fd5b5035919050565b60008151808452815b81811015610a9857602081850181015186830182015201610a7c565b81811115610aa95782602083870101525b50601f01601f19169290920160200192915050565b60006001600160a01b03808916835280881660208401525085604083015284606083015260c06080830152610af660c0830185610a73565b82810360a0840152610b088185610a73565b9998505050505050505050565b60006020808301818452808551808352604092508286019150828160051b870101848801865b83811015610bc557603f19898403018552815160c06001600160a01b03808351168652808a840151168a87015250878201518886015260608083015181870152506080808301518282880152610b9383880182610a73565b9250505060a08083015192508582038187015250610bb18183610a73565b968901969450505090860190600101610b3b565b509098975050505050505050565b600181811c90821680610be757607f821691505b60208210811415610c0857634e487b7160e01b600052602260045260246000fd5b50919050565b634e487b7160e01b600052604160045260246000fd5b6001600160a01b0381168114610c3957600080fd5b5056fea2646970667358221220cf9f50b4be09ddab40c83daf87fdc72f5f9ac2cd2c7b610dffb77bc051c1142964736f6c63430008040033",
  "linkReferences": {},
  "deployedLinkReferences": {}
}